:020000040800F2
:20000000682B00206D020008C10B0008B90B0008BD0B0008410600082D17000800000000AB
:20002000000000000000000000000000791500084506000800000000D90B00089D16000830
:20004000870200088702000887020008870200088702000887020008870200088702000818
:200060008702000887020008870200088702000887020008870200088702000887020008F8
:200080008702000887020008870200088702000887020008870200088702000887020008D8
:2000A0008702000887020008870200088702000887020008870200088702000887020008B8
:2000C000870200088702000887020008870200088702000887020008870200088702000898
:2000E000870200088702000887020008870200088702000887020008870200088702000878
:20010000870200088702000887020008870200088702000887020008870200088702000857
:20012000870200088702000887020008870200088702000800000000000000008702000859
:20014000870200088702000887020008870200088702000887020008870200088702000817
:20016000870200088702000887020008870200088702000887020008870200080000000088
:200180000000000087020008000000000000000087020008000000000000000087020008AC
:2001A00000000000000000000000000087020008870200088702000887020008870200086A
:2001C0008702000800F002F800F040F80AA090E8000C82448344AAF10107DA4501D100F03D
:2001E00035F8AFF2090EBAE80F0013F0010F18BFFB1A43F001031847D04C0000F04C00007C
:20020000103A24BF78C878C1FAD8520724BF30C830C144BF04680C60704700000023002468
:2002200000250026103A28BF78C1FBD8520728BF30C148BF0B6070471FB504F0ECFB9DE8A8
:20024000030000F01FF91FBD10B510BD00F076F91146FFF7F1FF03F055FD00F094F903B410
:20026000FFF7F2FF03BC00F0C5F900000948804709480047FEE7FEE7FEE7FEE7FEE7FEE71C
:20028000FEE7FEE7FEE7FEE704480549054A064B70470000C5160008C50100086807002099
:2002A000682B0020682700206827002070B5064600F0CCF8056806F10B0020F00704B44288
:2002C0009CBF002070BD2B466A68BAB11068A04210D304F1080188423CBF5068586007D37E
:2002E0005168101941601168091B016058601460101D70BD13465268002AE7D1214628462D
:2003000000F0ACF80028DED170BD70B50446051F00F09CF80068002C14BF446870BD002CC2
:2003200018BFAC423CBF20466468F8D301680A18AA4218BF456003D12A68054611440160A6
:2003400028684119A1421CBF6C6070BD6168696021680844286070BD53EA020C00F06980BC
:200360002DE9F04B4FF00006002B1FBFB3FA83F503FA05F424FA05F65E4012BF1643B2FA36
:2003800082F502FA05F4C5F120051EBF22FA05FC44EA0C04203556EA044C4FEA144418BF91
:2003A000641C4FF000084FF00009904271EB030C39D3002919BFB1FA81F701FA07F6B0FA1F
:2003C00080F700FA07F6C7F120071EBF20FA07FC46EA0C062037B6FBF4FCA7EB0507103FAF
:2003E00007F01F0BCBF120060CFA0BFB2CFA06F644BFB3460026202FA4BF5E464FF0000B0A
:200400005BEA060C08BF4FF0010B19EB0B09ABFB027C48EB0608C01B06FB02CC0BFB03CC77
:2004200071EB0C01C1E70B46024641464846BDE8F08B13B54FF000004FF00001AFF3008074
:20044000BDE81C4070477047704770470048704710070020704770477047704738B5044676
:200460000A4600206946AFF30080002808BF38BD02460099204600F03FF8012038BD0120B2
:2004800000F054B8F8B5AFF30080054600200C46102000BF0646A819A0420DD932466946E9
:2004A0000020AFF30080070008BF00F03FF80098A04218BF0546C419FFF7C8FF056007461D
:2004C000F01D20F007004619284600F00AF8B44208BFF8BDA21B31463868BDE8F84000F026
:2004E0000BB800210160C0E901107047102070470048704708070020034640688C46002846
:2005000018BF88423CBF03464068F8D318681844884207D00CF1030020F00700001D411A77
:20052000521A0146081D0A60FFF7EFBE10B500F039F8BDE8104000F02FB870477546FFF7BC
:20054000D7FFAE4605006946534620F00700854618B020B5FFF798FEBDE820404FF000062F
:200560004FF000074FF000084FF0000B21F00701AC46ACE8C009ACE8C009ACE8C009ACE8EE
:20058000C0098D46704710B50446AFF300802046BDE81040FFF763BE002801D000F02AB89A
:2005A0007047000010B5012805D0002103A000F027F8012010BD09A1F8E700005349475242
:2005C000544D454D3A204F7574206F662068656170206D656D6F7279000000003A204865E3
:2005E0006170206D656D6F727920636F727275707465640001491820ABBEFEE72600020081
:2006000070B505460C460A2000E06D1C00F011F835B128780028F8D102E0641C00F009F8C2
:2006200014B120780028F8D1BDE870400A20AFF3008008B569468DF800000320ABBE08BD89
:2006400000BFFEE77047000001490860704700000C3C024030B10749096841F48061054A45
:20066000116005E00349096821F48061014A116070470000003C024070B504460A4600269B
:20068000092502B909E0012A01D1160205E0022A01D1160201E04FF4407600F09FF80546CC
:2006A000092D28D11548006820F440701349086008460068304308600846006820F0F8006F
:2006C00008600846006844F0020108430B4908600846006840F48030086000F07FF805460A
:2006E0000648006820F00200044908600846006820F0F8000860284670BD0000103C02402E
:2007000009201349096801F48031B1F5803F01D101201CE00E49096801F0100109B106203F
:2007200015E00B49096801F4807109B102200EE00749096801F0E00109B1072007E00449A7
:20074000096801F0020109B1082000E0092070470C3C02400348006840F000400149086033
:2007600070470000103C024030B502460C46092500F034F80546092D19D10E48006820F42E
:2007800040700C4908600846006840F4007008600846006840F001000860146000F01EF861
:2007A00005460448006820F0010002490860284630BD0000103C02400548006800F00040A8
:2007C00028B1044802490C390860034808607047103C024023016745AB89EFCD08B509205E
:2007E0000090FFF78DFF009002E0FFF789FF00909DF800000128F8D09DF8000008BD000087
:2008000010B504464148844208D10121084600F0F5F90021012000F0F1F976E03C48844297
:2008200008D10121022000F0E9F90021022000F0E5F96AE03748844208D10121042000F01A
:20084000DDF90021042000F0D9F95EE03248844208D10121082000F0D1F90021082000F027
:20086000CDF952E02D48844208D10121102000F0C5F90021102000F0C1F946E02848844215
:2008800008D10121202000F0B9F90021202000F0B5F93AE02348844208D10121402000F0E6
:2008A000ADF90021402000F0A9F92EE01E48844208D10121802000F0A1F90021802000F06F
:2008C0009DF922E01948844208D10121801500F095F90021A01500F091F916E014488442E3
:2008E00008D10121401500F089F90021601500F085F90AE00F48844207D10121001500F02C
:200900007DF90021201500F079F910BD000002400004024000080240000C0240001002406A
:200920000014024000180240001C024000200240002402400028024010B501460A0ACBB2DA
:20094000054850F82200006901249C40204008B1012010BD0020FCE7204A0008F0B50A4605
:2009600000210023002400BF3DE0012505FA01F3156805EA03049C4234D105684F000326DF
:20098000BE40B543056015794E00B5400668354305601579012D02D01579022D16D18568C1
:2009A0004F000326BE40B543856055794E00B540866835438560456801268E40B543456049
:2009C000456896798E40B6B235434560C5684F000326BE40B543C560D5794E00B540C66889
:2009E0003543C560491C1029BFD3F0BDF0B504460B46200AE1B24E4D2D68012686403543EB
:200A00004B4E35604B4D55F820502D684F000326BE40B543474E56F82060356003F003055D
:200A20004E00B540434E56F8206036683543414E56F8206035603F4D55F82050ED684F001F
:200A40000326BE40B5433B4E56F82060F560394D55F82050ED684F00C3F34116BE40354361
:200A6000344E56F82060F56003F00305012D03D003F00305022D2FD12E4D55F820506D689E
:200A800001268E40B5432B4E56F820607560294D55F820506D68C3F380068E403543254E50
:200AA00056F820607560234D55F82050AD684F000326BE40B5431F4E56F82060B5601D4D29
:200AC00055F82050AD684F00C3F3C106BE403543184E56F82060B56003F00305022D25D199
:200AE000144D55F820502035CE1055F826504E07F70E0F26BE40B5430E4E56F820602036DD
:200B0000CF1046F827500B4D55F820502035CE1055F826504E07F60E02FA06F63543054E1A
:200B200056F820602036CF1046F82750F0BD000030380240204A0008F0B5002300244D07F4
:200B4000ED0E02FA05F3CE1000F1200555F826504E07F70E0F26BE40B543CF1000F1200674
:200B600046F82750CE1000F1200555F8265045EA0304CE1000F1200545F82640F0BD4183CB
:200B8000704701837047000030B5020AC3B231B101249C40054D55F822502C8305E0012450
:200BA0009C40024D55F822506C8330BD204A000842694A404261704700BFFEE700BFFEE726
:200BC0007047000002490143024A1160704700000000FA050CED00E07047000029B1064AA2
:200BE00012680243044B1A6004E0034A12688243014B1A60704700003038024029B1064AAC
:200C000012680243044B1A6004E0034A12688243014B1A60704700001038024029B1064AAB
:200C200012680243044B1A6004E0034A12688243014B1A60704700002038024029B1064A7B
:200C400012680243044B1A6004E0034A12688243014B1A60704700004438024029B1064A37
:200C600012680243044B1A6004E0034A12688243014B1A60704700002438024010B54FF459
:200C80008570FFF759FE08B9012010BD0020FCE710B5002238214FF48570FFF7A7FE10BD80
:200CA00010B50824012000F04DF902E0FF2000F05DF9201EA4F10101CCB2F7D110BD10B5F8
:200CC000002218210420FFF791FE002000F04AFA10BD70B505464FF6FF7401E0601E84B232
:200CE000FF2000F043F9A84201D0002CF6D10CB9FF2070BD0020FCE7F8B5FFF7C9FFFFF786
:200D0000BDFF08B9AA20F8BD00F023F900F0B3F9002504E0FF2000F029F9681C85B20A2D03
:200D2000F8DB142600BF95220021084600F033F90446012C04D0301EA6F101018EB2F2D170
:200D4000002054490870012C75D192E087224FF4D571082000F01FF9012847D1002506E0CB
:200D6000FF2000F003F90DF80500681C85B2042DF6DB9DF8020001287BD19DF80300AA282B
:200D800077D14FF6FE7600BF01220021372000F002F901229107292000F0FDF8044624B105
:200DA000301EA6F101018EB2EED1002E61D0012200213A2000F0EFF800285AD1002506E01B
:200DC000FF2000F0D3F80DF80500681C85B2042DF6DB9DF8000000F0400018B106202D4948
:200DE000087002E004202B49087043E001220021372000F0D0F801220021292000F0CBF8D3
:200E00000446012C18DC0220224908704FF6FE7600BF01220021372000F0BDF80122002166
:200E2000292000F0B8F80446C4B1301EA6F101018EB2EED112E01EE00120164908704FF6F7
:200E4000FE7600BF01220021104600F0A4F8044624B1301EA6F101018EB2F3D12EB101222D
:200E60005102102000F097F810B100200949087000E06BE700BFFFF713FF00F0F6F80548A1
:200E8000007808B100203EE70CB120463BE7AA2039E70000140000202DE9F04106460F4691
:200EA000154619480078062800D07F02012D0CD101223946112000F06EF80446FCB96902E1
:200EC000304600F023F8044619E001223946122000F061F8044600BF4FF40071304600F00E
:200EE00015F8044606F50076681EC0B2051E01D0002CF1D0012200210C2000F04CF8FFF7B7
:200F0000CFFE2046BDE8F0811400002070B504460D46FE20FFF7DDFE08B1012070BD04E0B8
:200F2000FF2000F023F82070641C281EA5F101018DB2F5D1FF2000F019F8FF2000F016F857
:200F40000020EBE710B5044621460420FFF71CFE10BD10B5002219210420FFF747FD002089
:200F600000F0F6F80120FFF7EDFF10BD10B504462146002000F038FAC0B210BD10B50020E7
:200F8000FFF7E0FF00F07DF808B9002010BDFFF787FE0120FAE72DE9F04105460C461746AB
:200FA0004FF00008FFF77CFEFFF7E8FF10B1FF20BDE8F08100F065F808B1FF20F8E745F06E
:200FC0004000FFF7D3FF200EFFF7D0FFC4F30740FFF7CCFFC4F30720FFF7C8FFE0B2FFF734
:200FE000C5FF3846FFF7C2FF0C2D02D1FF20FFF7BDFF4FF01F0800BFFF20FFF7B7FF0646DF
:2010000006F0800030B1B8F10000A8F1010101F0FF08F1D13046CBE770B506460D4600F09F
:2010200030F808B1012070BD2846FFF79FFFFD2D19D0002404E0305DFFF798FF601C84B298
:20104000B4F5007FF7DBFF20FFF790FFFF20FFF78DFFFF20FFF78AFF044604F01F00052829
:2010600001D00220DFE70020DDE710B50721002000F062F910BD10B50721002000F05CF95C
:2010800010BD10B5002406E0FF20FFF76FFFFF2801D1002010BD2046641C4FF6FF718842E6
:2010A000F2D30120F6E700002DE9F04106460F46154620480078062800D07F02012D0CD1C0
:2010C000012239461820FFF766FF04466CBBFE213046FFF7A1FF044627E0164800780128EF
:2010E00009D0012200213720FFF755FF012229461720FFF750FF012239461920FFF74BFF09
:20110000044694B900BFFC213046FFF785FF044606F50076681EC0B2051E01D0002CF2D0D7
:20112000FD210020FFF778FF0446FFF7B9FD2046BDE8F0811400002021B1028842F040028E
:20114000028004E002884FF6BF731A400280704710B50446204600F017F80721204600F0A3
:20116000EBF810BD10B50446054951F82400FFF747FB044951F8240000F05AF810BD0000F4
:2011800018000020444A00081CB504461E4951F824000121FFF752FD1C4830F814001C4926
:2011A00031F8141008431B4931F814100843009002208DF8040000208DF8060003208DF80D
:2011C000050001208DF8070069461348FFF7C6FB124B1A5D124B195D124B53F82400FFF733
:2011E000ABFC0E4B1A5D104B195D0E4B53F82400FFF7A2FC094B1A5D0C4B195D094B53F814
:201200002400FFF799FC1CBD504A00085C4A0008624A0008684A000800000240774A00087D
:201220006E4A000818000020714A0008744A000810B504462448844208D101218014FFF767
:201240000DFD0021A014FFF709FD3CE01F48844208D101210014FFF7E1FC00212014FFF73D
:20126000DDFC30E01A48844208D10121C013FFF7D5FC0021E013FFF7D1FC24E015488442CA
:2012800008D101214014FFF7E9FC00216014FFF7E5FC18E01048844209D101210805FFF7A3
:2012A000DDFC00214FF48010FFF7D8FC0BE00B48844208D101214805FFF7D0FC00214FF425
:2012C0000010FFF7CBFC10BD0030014000380040003C004000340140005001400054014074
:2012E0000246002013890B400BB1012000E0002070470146888970478181704710B500225C
:20130000028802F441520B884C8823438C882343CC8823430C8923434C8923438C89234308
:20132000CC8923431A430280838B4FF2FF74234083830B8A038210BD70B586B005460E4607
:20134000082E15D2DFE806F012100E0C0A08060438240FE030240DE028240BE0202409E06B
:20136000182407E0102405E0082403E0002401E0382400BF00BF45B901210803FFF76EFCB8
:2013800000214FF48050FFF769FC0020ADF804004FF48270ADF806000020ADF80800022026
:2013A000ADF80A000120ADF80C004002ADF80E00ADF810400020ADF812000720ADF814000B
:2013C000084951F8250001A9FFF798FF054951F825000121FFF7B0FEFF21002000F004F869
:2013E00006B070BD444A00082DE9F04104460F46002506E0681CC5B2C82D02DD0020BDE8EF
:20140000F081134951F824000221FFF769FF0028F0D00F4951F824003946FFF76DFF00255E
:2014200005E0681CC5B2C82D01DD0020E7E7084951F824000121FFF753FF0028F1D00449AD
:2014400051F82400FFF755FFC6B23046D7E70000444A000801461C48814201D2002070477B
:201460001A48814201D20820F9E71948814201D21020F4E71748814201D21820EFE7164809
:20148000814201D22020EAE71448814201D22820E5E71348814201D23020E0E7114881427B
:2014A00001D23820DBE71048814201D24020D6E70E48814201D24820D1E70D48814201D23D
:2014C0005020CCE75820CAE7004000080080000800C0000800000108000002080000040809
:2014E000000006080000080800000A0800000C0800000E0801460868704710B5FFF75CF914
:2015000040F2F310FFF7A0F8FFF724F910BD000070B50925FFF750F90020FFF79BF8134C8E
:201520001348844215D210E02046FFF7E3FF401C50B12046FFF78EFF06460221FFF79CF836
:201540000546092D01D003E0241D0A488442EBD300BF0120FFF77EF8FFF7FCF8092D01D101
:20156000002070BD4FF0FF30FBE70000008000080000FF1FFBFF0708704700000CB5002087
:20158000019000904148006840F480303F49086000BF3E48006800F4003000900198401C0F
:2015A0000190009818B90198B0F5A04FF1D13748006800F4003010B10120009001E00020C4
:2015C00000900098012860D130484030006840F080502E49403108602D48006840F4404058
:2015E0002B4908602948083000682849083108600846006840F4004008600846006840F470
:20160000A05008602348091F0860081F006840F08070091F086000BF1C48006800F000704D
:201620000028F9D01A48006840F480301849086000BF1748406800F480300028F9D014488B
:20164000006840F400301249086000BF1048406800F400300028F9D040F205700E490860C1
:201660000A480830006820F003000849083108600846006840F00200086000BF03480830E1
:20168000006800F00C000828F8D10CBD0038024000700040085A4077003C024010B508484E
:2016A0000068401C0649086008460068401C08B9002008600248006800F08CF910BD000060
:2016C0002400002010B51548006840F47000134908601348006840F00100114908600020FE
:2016E0000F49083108600E4800680E4908400C4908600D48091D0860081F006820F48020B1
:20170000091F0860002006490C310860FFF736FF4FF0006001498039086010BD88ED00E0CE
:2017200000380240FFFFF6FE1030002400BFFEE72DE9FC4100F0ABF800F0A1F810B10520E0
:20174000BDE8FC8100F0E8F805460DB12846F7E7002600BF4FF0FF30009001AB04226946DE
:201760002B4801F007FB0446019868B1009800F0FFF805460DB9761C06E0254801F040F968
:2017800002F01EF80620DBE714B901980028E1D100F0E4F801221FA11D4801F06DF9044664
:2017A0001CB102F00DF80720CAE71E4F002600BF4FF0FF30009001AB04226946144801F06F
:2017C000D9FA0446019868B138680099884202D13F1D761C06E00E4801F012F901F0F0FF5E
:2017E0000720ADE714B901980028E1D1084801F007F90DA001F0CDFF10B10BA001F09AFD4F
:2018000009A104A001F0BDFB01F0DAFF002097E7B80400206669726D776172652E62696EC9
:2018200000000000008000086F6C642E62696E0000B500F005F808B9002000BD0420FCE733
:2018400005480068A0F10050B0F5003F01D8002070470220FCE700000080000802460B4638
:201860004FF4F0210020891A984101D3002070470320FCE710B5FFF722FA002010BD10B53E
:20188000FFF746FE08B9002010BD0520FCE710B5FFF733FE002010BD10B501F08DFF08B97C
:2018A000012010BD01220EA1114801F0E5F818B101F086FF0220F4E70D48D0E9042110467C
:2018C000FFF7CCFF30B10A4801F09AF801F078FF0320E6E7064801F093F80020E1E7000087
:2018E0006669726D776172652E62696E00000000B804002070B50648446825460549086008
:201900000146086880F3088800BFA84770BD00000080000808ED00E010B5012208A10C48F0
:2019200001F0AAF804461CB101F04AFF022010BD084809490860FEF73FFF0020F7E7000099
:201940006669726D776172652E62696E00000000B8040020008000083800002010B5FEF74D
:20196000F9FE024801F04CF8002010BDB804002010B50446144800681449884204D81248F8
:2019800000681349884203D2FEF7E4FE062010BD21460D480068FEF7E7FE09280ED10A48BA
:2019A00000680068A04203D0FEF7D4FE0620EEE705480068001D0449086003E0FEF7CAFEB9
:2019C0000620E4E70020E2E738000020FCFF07080080000810B504466420B4FBF0F100FB25
:2019E000114018B908210248FFF7E2F810BD0000000C024010B508210348FFF7C0F800215F
:201A00000820FFF7EBF810BD000C02401CB501210820FFF7E3F801208DF8040002208DF86D
:201A200005000820009069460348FEF797FF08210148FFF7A6F81CBD000C02402DE9F047EA
:201A400004460D4690469946AD1E606B00EB153AC5F3C80605F0070101208840C7B200BFC0
:201A600051460AF1010A204602F01EFC10B10120BDE8F08700BF00BF04F13C00805D384055
:201A800008B1012000E00020484501D10220EFE704F13C00805D784004F13C01885501201F
:201AA000E070A8F10100B0F1000800D1E0E77806000E071EE0D10127701C0646B0F5007F75
:201AC000D9D30026CCE7000070B504460D460020E070401EA0632946204602F0E5FB08B18E
:201AE000042070BD04F23A2002F05FF84AF65521884201D00320F4E70B2214A104F13C009A
:201B000002F01FF908B90120EBE794F83C00E92807D094F83C00EB2803D094F83C00E828D1
:201B200011D103220CA104F1720002F00AF908B90020D6E7052209A104F18E0002F001F9B7
:201B400008B90020CDE70220CBE70000EB769045584641542020200046415400464154336A
:201B600032000000024600E0521C107810B110788842F9D1107870470246891ED069801E33
:201B8000884201D8002070475389106B03FB0100F9E700002DE9F04780460C4604F11A0021
:201BA00002F003F810B10020BDE8F087207800F03F00401E00EB800101EBC0054FF00109B0
:201BC000002621E01849895D081901F0EEFF0746B9F1000F11D0FF2D0BD8384601F054FCE3
:201BE000824629466D1C38F8110001F04DFC824501D00020D8E7B94605E04FF6FF708742D2
:201C000001D00020D0E7761C0D2EDBD3207800F0400038B1B9F1000F04D038F8150008B165
:201C20000020C1E70120BFE7844A00082DE9F04706468A463468BAF1000F0AD1D4F8148045
:201C4000B8F1000F02D0E069404516D84FF0010813E05146304601F01DFE0746022F02D298
:201C60000120BDE8F087781C08B93846F9E7E069B84201D93846F4E7D046A06908B90020FE
:201C8000EFE7207804284ED101224146204601F090FC05460DB1681C08B92846E1E7012356
:201CA0001A4629462046FFF7C9FE8146B9F1020F01D10120D5E7B9F1010F02D14FF0FF3006
:201CC000CFE7BAF1000F02D10220F0710CE0F079022809D108F10100854205D0B068A8EBA4
:201CE0000000B0610320F071F079022869D00AF10100854207D1F06910B1F069401C00E039
:201D00000220F0615DE0F06908B90120F0612A465146304601F02BFC8146B9F1000F50D151
:201D20000120F0614DE00025D04519D108F10105E069A84200D802252946304601F0AAFD32
:201D40000746012F01D0781C08B9384689E73FB16769022F03D3E069B84200D9B8460025EC
:201D6000E5B9454600BF6D1CE069A84204D80225454501D9002074E72946304601F08AFD80
:201D8000074607B909E0012F01D0781C08B9384667E74545E7D1002063E700BF4FF0FF3250
:201DA0002946204602F0E0FA8146B9F1000F08D1BAF1000F05D02A465146204602F0D4FA6D
:201DC0008146B9F1000F0DD16561D4E90610801E814202D8A069401EA061207940F001009F
:201DE000207107E0B9F1010F02D14FF0FF3000E001200546284634E72DE9F34F83B0814649
:201E0000049800680090D9F80000D0F80CA0002500BF684602F038FD83460BF1010018B999
:201E2000062005B0BDE8F08FBBF5803F05D34FEA1B4228466D1C2AF810201FFA8BF4202C99
:201E400003DB2F2C01D05C2C00D111E0802C06DA21467BA0FFF786FE08B10620E1E7FF2DD3
:201E600001D30620DDE728466D1C2AF81040D0E700BF202C01DA04260CE0002602E00098E8
:201E8000401C0090009800782F28F8D0009800785C28F4D000990498016008E0681E3AF899
:201EA0001040202C02D02E2C00D002E06D1E002DF4D100BF00202AF815000DB90620B0E792
:201EC000002700E07F1C3AF817002028FAD01FB93AF817002E2801D146F0030600E06D1E12
:201EE00025B1681E3AF810002E28F8D10B22202109F1400001F044FF4FF00008CDF80880B5
:201F00000820019000BF38467F1C3AF8104004B96AE0202C03D02E2C04D1AF4202D046F060
:201F20000306F0E7DDE90110884201D2AF4216D101980B2802D146F0030655E0AF4201D0A0
:201F400046F00306AF4200D94EE02F46082002900B2001904FEA88604FEA1068D3E7802C27
:201F60000EDB46F0020640F2B511204601F06CFA044604F0800018B104F07F0033490C5CA7
:201F8000FF2C11DD0198401E0299884204D846F0030601980290B6E722120298411C02912B
:201FA00009F140010A5418E024B1214628A0FFF7D9FD18B15F2446F003060EE0412C03DBFC
:201FC0005A2C01DC48F00208612C06DB7A2C04DC48F00108A4F1200084B20298411C0291B2
:201FE00009F140010C548EE700BF99F84000E52802D1052089F840000198082803D14FEAA5
:020000040800F2
:2020000088604FEA106808F00C000C2803D008F00300032801D146F0020606F0020048B9ED
:2020200008F0010008B146F0100608F0040008B146F008064B2000F809600020F1E60000E6
:20204000222A3A3C3E3F7C7F00000000914A00082B2C3B3D5B5D00002DE9F04704460E46F1
:2020600040220021204601F08BFE85202070C02084F8200040250020804607464FF001096B
:2020800000BFC12228466D1C2254002228466D1C225400BFB9F1000F06D036F81700B0F16E
:2020A000000901D0781CC7B26019494602F02FFBAD1C05F01F000028ECD108F1010000F069
:2020C000FF0836F817000028DBD184F8237008F101006070304602F078FC8246514604F1D7
:2020E000240002F014FBBDE8F087014609B1002070470020FCE72DE9F04104460E46D4F813
:2021000000800021204600F0A2FB05465DBB002700BF4046A16B02F0C7F8054605B121E09D
:2021200098F80000042805D1E06B0078012121EAD01009E0E06B0078E52802D0E06B0078EF
:2021400008B9012000E0002020B1781C0746B04201D107E000270121204600F041F905461C
:20216000002DD6D000BF042D00D107252846BDE8F0812DE9F04704468946204602F05EFB04
:2021800010B10120BDE8F08749462046FFF7F4FC0746A7634FF40072002104F13C0001F017
:2021A000EFFD60894FF40041B1EB402F01D8084601E06089400206464FF0000800E0760897
:2021C000B6F5007F05D9304601F032F9B0F10008F5D0B6F5007F17D932460021404601F0CD
:2021E000CFFD760A002500E035446089A84207D97A1960783346414600F0D6FB0028F3D04B
:20220000404601F01BF910E004F13C080126002500E035446089A84207D97A1960783346CE
:20222000414600F0C1FB0028F3D06089A84201D00120A7E70020A5E72DE9F04F85B00446AD
:2022400025680021204600F002FB07461FB1384605B0BDE8F08F287804284CD1E86802F0DE
:20226000B4FB01903EE0296901F1240001F09DFC0199884200D035E0286990F823000390B6
:202280004FF0400A002002901FE00AF01F0008B90AF1020A296901EB0A0001F086FC009098
:2022A00001F0F2F88346EA68029932F8110001F0EBF8834500D00BE00398401EC0B20390FD
:2022C0000AF1020A0298401C029003980028DCD100BF039828B9E968029831F8100000B9E7
:2022E00006E000BF0021204600F0EAF8071EBAD000BF3846ACE74FF0FF09CDF810904FF076
:20230000FF30E06400BF2846A16B01F0CDFF074607B162E0E06B06780EB904275DE0E06BCA
:20232000C07A00F03F0884F80680E52E05D008F0080040B1B8F10F0F05D04FF0FF094FF02F
:20234000FF30E06442E0B8F10F0F22D14B20005D00F04000A0BB06F0400038B1E06B407BB6
:20236000049006F0BF06B146206BE0644E450CD1E06B417B0498814207D1E16BE868FFF708
:2023800009FC10B1A9F1010000E0FF2000F0FF091CE0B9F1000F06D1E06B02F0F7F904998F
:2023A000884200D119E04B20005D00F0010040B90B2204F14001E06B01F0C3FC08B90CE0CC
:2023C00004E04FF0FF094FF0FF30E0640021204600F006F80746002F95D000BF384637E76F
:2023E0002DE9F041044688462768206B00F120063878042801D1800601E04FF40010B042F3
:2024000001D80020A063A06B10B90420BDE8F081C6F3080000284AD1A06B401CA063606B79
:2024200038B93889B0EB561F41D80020A0630420ECE77889401E00EA5620002837D1204652
:20244000616B01F027FA0546012D01D80220DDE7681C08B90120D9E7F869A84221D8B8F153
:20246000000F03D10020A0630420CFE72046616BFFF7DCFB05460DB90720C7E7012D01D197
:202480000220C3E7681C08B90120BFE729463846FFF76FFE08B10120B8E7E07940F004000E
:2024A000E071656329463846FFF766FBA0632663C6F3080107F13C000844E0630020A5E702
:2024C0002DE9F05F04468A46042627684FF0FF09CB4667E03846A16B01F0E6FE064606B1C3
:2024E00063E0E06B05780DB904265EE0387804280FD100BF852D4ED1206BE064204601F031
:202500007AFB064626B93869007900F03F00A0714BE0E06BC07A00F03F0884F80680E52DC6
:202520000AD02E2D08D028F02000082801D1012000E00020504502D04FF0FF092BE0B8F1D1
:202540000F0F1CD105F0400038B1E06B90F80DB005F0BF05A946206BE0644D450BD1E06B92
:20256000407B584507D1E16BF86801F0B7FE10B1A9F1010000E0FF2000F0FF090BE0B9F1F1
:20258000000F04D1E06B02F001F9584502D04FF0FF30E06409E000212046FFF721FF06462D
:2025A00006B102E0A06B002894D100BF0EB10020A0633046BDE8F09F2DE9F04F99B00446B7
:2025C00026684B20005D00F0A00018B1062019B0BDE8F08F4FF0000B01E00BF1010BF068AE
:2025E00030F81B000028F8D13078042866D10BF10E000F21B0FBF1F000F1020949462046E5
:20260000FFF779FD05460DB12846E0E7A9F101002022216B02FB1010E064E07900F00400F9
:20262000002845D0E07920F00400E071204600F083FF05460DB12846C9E74FF0FF322046CA
:20264000616B00F094FF05460DB12846BFE7A06870B32146684601F0AEFA05460DB12846BE
:20266000B5E770894002D4E90431181841F10001C4E90401D4E90473316901F138003A4604
:2026800002F017F8D4E90473316901F128003A4602F00FF8E07940F00100316981F821001A
:2026A000684602F03AF805460DB128468FE700BFD6E90310FFF7D0FC002088E70C2204F156
:2026C000400115A801F04FFB9DF85F0000F0010028B340214B2001554FF0010A0EE053460E
:2026E00015A904F14000F26801F06EF82046FFF7A3FD054605B104E00AF1010ABAF1640F31
:20270000EDD300BFBAF1640F01D107205FE7042D01D028465BE79DF85F104B2001559DF8D1
:202720005F0000F0020030B10BF10C000D21B0FBF1F0401C00E00120814649462046FFF796
:20274000DAFC054675BBA9F10100B0F1000929D0206BA0EB4911204600F079F805460DBBA0
:2027600004F1400002F012F8149000BF3046A16B01F09AFD054605B113E009F0FF02E16B81
:20278000F068149B01F092FE0120F07000212046FFF726FE054625B9A9F10100B0F1000921
:2027A000E4D100BFC5B93046A16B01F07DFD054695B920220021E06B01F0E2FA0B2204F104
:2027C0004001E06B01F0CFFA4B20005D00F01800E16B08730120F0702846F8E62DE9F04108
:2027E00004462668276BE06C401C08B9002003E02046E16C00F02BF805462DBB00BF3046D5
:20280000A16B01F051FD054605B119E03078042806D1E06B007800F07F00E16B087002E0F0
:20282000E520E16B08700120F070206BB84200D306E000212046FFF7D3FD0546002DDED09D
:2028400000BF042D00D102252846BDE8F0812DE9F04104460D4626683078042801D180066E
:2028600001E04FF40010A84202D905F01F0010B10220BDE8F0812563A7682FB93078032800
:2028800002DBF76A0020E07147B93089B0EB551F01D80220EDE7F06AA0631CE070894FEA67
:2028A000402811E03946204600F0F4FF0746781C08B90120DDE7022F02D3F069B84201D83E
:2028C0000220D6E7A5EB08054545EBD239463046FFF752F9A0636763A06B08B90220C8E795
:2028E000A06B00EB5520A063C5F3080106F13C000844E0630020BCE770B50446002504E0AC
:2029000001200D494855681CC5B2022DF8DB14B1012C0BD109E0FEF7EFF928B90648005D86
:2029200020F001000449085502E001E0042070BD00BF0148005DFAE72800002003460BB92D
:20294000002070470420FCE72DE9F04104460E4617461D4615B90420BDE8F0810C48005D3B
:2029600000F0010008B10320F6E714B1012C0CD109E0EAB239463046FEF78EFA08B9002006
:20298000EAE70120E8E70120E6E70420E4E70000280000200146022901DB012070470148E2
:2029A000405CFBE7280000202DE9F04104460E4617461D4615B90420BDE8F0810F48005DF0
:2029C00000F0010008B10320F6E70C48005D00F0040008B10220EFE714B1012C0CD109E03F
:2029E000EAB239463046FEF75FFB08B90020E3E70120E1E70120DFE70420DDE7280000204C
:202A000038B50546284600F0BFFB04463CB96946284601F09FFF04460CB90020286020465E
:202A200038BD0000F7B582B016460398019001A800F0F8FF0546002D02DA0B2005B0F0BDCA
:202A40000C4850F825400CB100202070029810B10020029908700749029841F825000EB96B
:202A60000020EBE7002202A903A801F0E3F907463846E3E72C0000202DE9F74F98B0044650
:202A800016461CB909201BB0BDE8F08F06F03F06324603A919A801F0CDF90546002D7AD153
:202AA000039804904FF48C6000F0C2FC8346BBF1000F01D11120E6E70398C0F80CB00BF5A7
:202AC00000700399086104A8199900F000FE05462DB99DF85B0000F0800000B1062506F0D2
:202AE0001C0000287DD045B1042D03D104A8FFF763FD054646F008060AE09DF8160000F034
:202B0000110008B1072503E006F0040000B10825002D3FD106F0080000283BD00398007883
:202B2000042839D1039820602146039800F0D4FF03990969881C1E22002101F021F90399C5
:202B4000096901F126001A22002101F019F920200399096908710399096901F108008449EF
:202B600001F09BFD01200399096981F8210004A801F0D3FD0546002D53D1A068002850D0AA
:202B800000222046A16801F0D1FC0546A068401E0399486145E0E5E01399039800F0B5FF1B
:202BA0000290139901F10E00714901F076FD20201399C87200221399039801F05CFD139934
:202BC00001F11C00002101F068FD01200399C870029830B30398806B0190002204A802997E
:202BE00000E00DE001F0A2FC0546D5B90199039801F05AFB05460298401E0399486110E0AD
:202C00007DB99DF8160000F0100008B1042508E006F0020028B19DF8160000F0010000B1EB
:202C200007254DB906F0080008B146F040060398806BA0641398E064002D7BD1039800782A
:202C400004280FD106982062089820F0FF009DF81710084360621798A0622146039800F02D
:202C60003BFF0CE01399039800F04FFFA060139901F11C0000F05CFF0021C4E90401039836
:202C800020600398C088A08084F83060002084F8310060640021A163E1634FF4007204F101
:202CA000500001F06DF806F02000002857D00023D4E9041059405840014350D0D4E90401BE
:202CC000C4E90E01039840894FEA4029D4F808A0D4E9047810E05146204600F0DBFD824608
:202CE000BAF1010F00D802250AF1010000B90125B7EB090768F100082DB90020B9EB07017A
:202D000070EB0800E7D3C4F840A09DB94FF40072002338464146FDF71FFB00214A404B4083
:202D20001A431CD051460398FEF726FF0190019808B9022513E04FF400720023384641461C
:202D4000FDF70AFB019908446064626C03994878012304F15001FFF7F7FD00B101255846DD
:202D600000F06CFB0DB10020206028468BE600000000214E2DE9FF4F87B004461546089870
:202D8000039000210A98016005A9204601F0E2FD0690069818B994F83100069018B10698D9
:202DA0000BB0BDE8F08F94F8300000F0010008B90720F5E7D4E90430D4E90E125F1A60EB31
:202DC0000208791B78F1000000D23D46D4E0D4E90E014FF400720023CDE90001FDF7BCFADE
:202DE00000214A404B401A4370D1D4E90E014FF400720023CDE90001FDF7AEFA0599498998
:202E0000491E00EA010ABAF1000F1ED10023D4E90E1059405840014302D1A068049004E0E7
:202E20002046216C00F036FD04900498022803D2022084F83100B3E70498401C18B90120FA
:202E400084F83100ACE704982064216C0598FEF793FE8146B9F1000F03D1022084F831003F
:202E60009EE7D1444FEA552BBBF1000F2FD00AEB0B0005994989884203D905984089A0EB3E
:202E80000A0B059948785B464A460399FFF75CFD18B1012084F8310082E794F8300000F0F7
:202EA000800080B1606CA0EB090058450BD2616CA1EB0901039A02EB41204FF4007204F18F
:202EC000500100F050FF4FEA4B2645E029E0606C484524D094F8300000F0800090B1626C02
:202EE00005994878012304F15001FFF75DFD18B1012084F8310053E794F8300000F07F00BE
:202F000084F830000599487801234A4604F15001FFF71AFD18B1012084F8310040E7C4F826
:202F20004490208FC0F30800C0F50076AE4200D92E46D4E90E014FF400720023CDE9000190
:202F4000FDF70AFA04F150001044324601460290039800F008FF00BFAD1B0A9800688119D2
:202F60000A980160039830440390D4E90E20921940F10000C4E90E20002D7FF428AF002073
:202F80000EE72DE9F347BAB03BA800F04BFD022211A93AA800F04EFF0446002C7DD11198FD
:202FA00026904FF48C6000F043FA06461EB911203CB0BDE8F0871198C66006F500701199BF
:202FC000086126A83A9900F082FB04462CB99DF8E30000F0A00000B10624002C7BD1119847
:202FE000007804285DD111984022016901A800F0BAFE502226A912A800F0B5FE12A83B990D
:2030000000F065FB04465CB928991498884205D132991E98884201D1042000E00820044661
:20302000042C3DD112A8FFF7C7FA0446B4BB1198006990F801801198006990F82390119916
:20304000096901F1240000F0B0FD824611994022086901A900F087FE1198006980F80180DC
:203060001198006980F823901199096901F12400514601F04CFB11980069007900F0100087
:2030800038B911980069007940F0200011990969087112A801F041FB01E072E000E004468B
:2030A00062E0202201A8359900F05DFE502226A912A800F058FE12A83B9900F008FB0446BE
:2030C00064B928991498884206D132991E98884202D1042001E051E008200446042C43D1BB
:2030E00012A8FFF769FA04464CBB219D13220DF1110105F10D0000F036FE9DF80F00E87244
:20310000E87A00F0100018B9E87A40F02000E87201201199C870E87A00F0100078B1149935
:203120002898884220D02946119800F0EEFC804641461198FEF720FD07460FB9022413E0ED
:203140003946119801F0B0F80446119800F15C0554B968782E2807D12946149A119801F097
:203160008AFA01201199C87044B926A8FFF736FB04461CB9119801F019FB0446304600F059
:203180005DF9204614E700002DE9F04796B0044614A9204601F0DEFB0546002D7ED194F85B
:2031A000300000F04000002878D094F8300000F0800090B1626C14994878012304F150012D
:2031C000FFF7F2FB18B1012016B0BDE8F08794F8300000F07F0084F83000DFF854A11498F1
:2031E0000078042875D1204600F0A6F9054635B94FF0FF322046216C00F0B9F90546002D3A
:20320000CCD14FF48C6000F013F98146B9F1000F01D11120D8E71498C0F80C9009F5007036
:20322000149908612146684600F0C5FC0546002D4AD114980069007940F020001499096922
:203240000871E07940F001001499096981F82100A168149A126902F1340001F01EFAD4E993
:2032600004731499096901F138003A4601F021FAD4E904731499096901F128003A4601F024
:2032800018FA1499096901F10C00514601F005FA0020149909694875149900E045E0096958
:2032A00001F11000002101F0F8F9684601F035FA05464DB9149801F079FA054694F83000D3
:2032C00000F0BF0084F83000484600F0B7F82CE0FFE7A16C149800F0E7FF05462DBBE66C60
:2032E000F07A40F02000F0723146A268206801F0C2F906F11C00216901F0CFF9514606F119
:20330000160001F0CAF9002106F1120001F0FFF901201499C870149801F048FA054694F814
:20332000300000F0BF0084F8300028464CE700000000214E71B5B7B0002602220DA937A886
:2033400000F078FD0446002C70D10D9822904FF48C6000F06DF8054615B9112038B070BD17
:203360000D98C56005F500700D99086122A8379900F0ADF9044600BF002C54D19DF8D30018
:2033800000F0800008B1062405E09DF88E0000F0010000B10724A4BB0D9800900D98007854
:2033A000042805D169460D9800F096FB029E04E031990D9800F0A9FB06469DF88E0000F050
:2033C0001000F0B10D980E9010960D980078042807D1DDE90401CDE912019DF807008DF87D
:2033E0003F0000210EA8FFF732FA04464CB900210EA8FFF765F8044604B90724042C00D1E9
:20340000002484B922A8FFF7E9F9044634B92EB100223146684601F089F804461CB90D9816
:2034200001F0C4F90446284600F008F8204695E710B504462046FCF739FF10BD10B50446D8
:203440002046FCF762FF10BD10B5024600200D4B802A01D290B213E0B2F5803F10D240F234
:20346000B514A1420CD1002001E0441CA0B2802803DA33F810409442F7D100F18004E0B26B
:2034800010BD0000124B000870B5B0F5803F4DD281B2B1F5805F01DA254E00E0254E324681
:2034A00000BF32F8023B0BB1994200DA3CE032F8024B2512E4B21E198E4230DD092D2CD2CD
:2034C000DFE805F005090F13171B1F232700CE1A32F8161021E0CE1A06F001068E1BB1B23B
:2034E0001BE0A1F11006B1B217E0A1F12006B1B213E0A1F13006B1B20FE0A1F11A06B1B292
:203500000BE001F10806B1B207E0A1F15006B1B203E0A1F5E356B1B200BF00BF04E0002D87
:20352000BFD102EB4402BCE700BF084670BD0000124C0008044E00082DE9F0410446E07941
:20354000032812D1A568A7690BE06A1C2946206800F00AFF064616B13046BDE8F0816D1CB7
:203560007F1E002FF1D10020E0710020F5E72DE9F04104460D46174616E0E369012B03D9C5
:20358000E369EB1A9B1C00E03B461A46E369EB1A591C206800F0E8FE064616B13046BDE810
:2035A000F081E069401EE061E0690028E5D100BFF5E72DE9F74F05460E46B61EE869801E32
:2035C000B04200D800263446A2464FF0000B00BF686B00EB1431284600F066FE18B14FF0C3
:2035E000FF30BDE8FE8FC4F3C80904F0070101208840C7B200BF00BF05F13C0010F80900C3
:2036000000EA07087806070E601C0446E969891E884203D3002400274FF40079B8F1000F00
:2036200008D10BF1010083460299884205D10AF10200D6E7A2464FF0000BB44201D10020DC
:20364000CFE7002FD8D1012709F101008146B0F5007FD0D3BCE72DE9FF4107460D46002171
:203660003846FEF731FA0646022E06D0032E00D21DB9304604B0BDE8F08100BF00240AE074
:2036800007F5FD7101EB041101F1080000F050FA4DF82400641C042CF2D30DB1681E00E089
:2036A0000020044600BF5DF8240028B15DF824103846FEF709FA00E0032006462DB9022E2B
:2036C00003D3601C04460428EDD33046D2E72DE9F3410446276802E00198401C019001980F
:2036E00000782F28F8D0019800785C28F4D00020A060E06101980078202808D280214B203A
:20370000015500212046FFF7A2F805463EE000BF01A92046FEF770FB054605B135E0204628
:20372000FEF78AFD05464B20065D3DB1042D04D100BF06F0040000B9052526E006F0040064
:2037400000B122E0A07900F0100008B905251CE0387804280ED1A0682062206920F0FF00D9
:20376000E17908436062E06CA0622146384600F0B3F909E0208EC0F3080207F13C00111862
:20378000384600F0C2F9A060C2E700BF2846BDE8FC8110B5ADF5147D04460022214668468F
:2037A000FFF76AF930B96846FFF72AF901200DF5147D10BD0020FAE710B500F02BFB10BDD6
:2037C00010B501F0B9F810BD2DE9FF4F83B0804691461E460B224046049900F0C4FA052EEC
:2037E00018D9374611E039F802BB00250BE0584667F35F0007464FEA6B0B07F4803008B1B5
:20380000234847406D1C102DF1D3B9F800000028E9D13E46072500BF06F00F0000F1300AFA
:20382000BAF1390F03DD0AF1070000F0FF0A28466D1E01A901F800A03609002EECD17E20B6
:20384000485500240AE018F80400FEF74EFC20B1681EA04200D107E0641C641CAC4203D2B6
:2038600018F804002028EED100BF00BF082D04D228466D1C01A9085C00E020202146641C98
:2038800008F80100082CF1D307B0BDE8F08F0000211001002DE9FC5F06460C463568022C48
:2038A00002D3E869A04202D84FF00109B7E04FF0FF392878012806D0022830D0032841D0CA
:2038C00004287CD152E0274607EB5707A86A00EB5721284600F0E8FC00B19FE038467F1C80
:2038E000C0F3080105F13C0010F80180A86A00EB5721284600F0D8FC00B18FE0C7F30801C7
:2039000005F13C00405C48EA002804F0010010B14FEA181001E0C8F30B0081467EE0A86A8A
:2039200000EB1421284600F0BFFC00B176E040F2FF1101EA440205F13C01501800F035F91B
:2039400081466BE0A86A00EBD411284600F0ACFC00B163E040F2FF1101EA840205F13C0193
:20396000501800F0E5F820F0704957E00022D6E9041051405040014301D0B06808B9F079A5
:2039800090BBB068A4EB000AD6E90420521E60F10000CDE900204FF400720023DDE9000112
:2039A000FCF7DAFC6989B0FBF1FBF07902280AD1DA4508D8DA4503D16FF0004001E02AE0CB
:2039C000601C81462AE0F079032805D1B069504502D904F1010921E0F079022819D0F069D2
:2039E00018B16FF0004913E014E0A86A00EBD411284600F059FC00B110E040F2FF1101EA0C
:203A0000840205F13C01501800F092F820F0004904E000BF00BF4FF0010900BF00BF4846FB
:203A2000BDE8FC9FF0B506464FF0FF30D6F800C06146634601B9F0BD00BF13F8012B202A62
:203A400001D33A2AF9D13A2A40D1022591F800C0BCF1300F0DDB91F800C0BCF1390F08DC89
:203A600001F1020C9C4504D191F800C0ACF1300527E0002500BFDFF85CC05CF82570316815
:203A800000BF17F8014B11F8012B612C05DB7A2C03DCA4F1200C0CF0FF04612A05DB7A2A16
:203AA00003DCA2F1200C0CF0FF020CB19442E8D00CB9994205D005F1010C6546BCF1020F3F
:203AC000D9DB022D01DA28463360B4E7002000BFB1E700007C4A000870B505460C462969F3
:203AE00001F1340000F024F8A060296901F1380000F02AF8C4E90401286990F8210000F0EA
:203B00000200E0710020E06170BD70B505460C4604F11A0000F049F806462878032805D1D5
:203B200004F1140000F041F846EA0046304670BD0146C8788A7842EA00204A7842EA002057
:203B40000A7842EA0020704770B50246D3790024250245EA1364907940EA0323250245EA87
:203B60001364507940EA0323250245EA1364107940EA0323250245EA1364D07840EA0323AA
:203B8000200240EA1364917841EA0323210241EA1364507840EA0323250245EA13641178D5
:203BA00041EA03231846214670BD014648780A7842EA0020704770B504460D462868206064
:203BC000286AA06095F82400E071686A20F0FF000021C4E904010020E061A86AE064204680
:203BE000E16CFEF734FE06461EB9204600F003F80646304670BD2DE9F04704462068066960
:203C0000A16B206800F050FB054615B12846BDE8F087E06B0078852801D00220F7E72022B7
:203C20003046E16B00F09FF87078401C4FEA4018B8F1600F02D3B8F5187F01D90220E6E76C
:203C400000212046FEF7CCFB0546042D00D102250DB12846DBE7A16B206800F025FB0546D0
:203C60000DB12846D3E7E06B0078C02801D00220CDE7202206F12000E16B00F074F896F87D
:203C800023002C300F21B0FBF1F0B8EB401F01D20220BCE7402700BF00212046FEF7A0FB12
:203CA0000546042D00D102250DB12846AFE7A16B206800F0F9FA05460DB12846A7E7E06B07
:203CC0000078C12801D00220A1E7B7F5187F04D2F0192022E16B00F046F807F120000746C5
:203CE0004045D9D3B7F5187F0AD8304600F050FE8146B01CFFF759FF814501D0022086E7B3
:203D0000002084E74FF4A060FCF75CFF00F04CF8FDF77CFEFDF7C0FD00B108E0FDF708FDA2
:203D200000B104E0FDF784FD00B100E000BFFDF7A1FD00F02EF8FDF75DFEFDF7DBFD00BFA7
:203D4000FEE7F0B503461D460C46002000BF15F8017B14F801CBA7EB0C00561E321E01D068
:203D60000028F4D0F0BD30B503460C463AB100BF14F8015B03F8015B551E2A1EF8D130BD50
:203D800010B5034600BF03F8011B541E221EFAD110BD4FF0E020006920F003004FF0E021FA
:203DA000086100207047000030B5174800684FF47A72B0FBF2F1481EB0F1807F01D301205F
:203DC0001BE0481E4FF0E022506150170F22002807DA13071D0E0D4B00F00F04241F1D559A
:203DE00003E013071C0E0A4B1C5400BF00204FF0E022906107201061002010B14FF0FF30DF
:203E000030BD0020FCE700000000002018ED00E000E400E010B5012204A10548FEF702FE1A
:203E200008B9012010BD0020FCE7000053443A003C0000202DE9F74F8CB000210D980160E4
:203E40000C98FFF7EFFD0A900A98002803DA0B200FB0BDE8F08FFE490A9851F820400CB936
:203E60000C20F5E70D9804600E9800F0FE000E90207878B16078FEF78DFD83460BF0010022
:203E800040B90E9820B10BF0040008B10A20DFE70020DDE7002020700A9860706078FEF737
:203EA0002BFD83460BF0010008B10320D0E70E9820B10BF0040008B10A20C9E700212046F2
:203EC000FFF7C9FB0746042F01D10120C0E7022F01D30D20BCE7A56B012F76D14FF00B095F
:203EE00001E009F10109B9F1400F05D204F13C0010F809000028F4D0B9F1400F01D20D20E6
:203F0000A6E704F1A400FFF750FEB0F5807F01D00D209DE794F8A81001208840B0F5007FC0
:203F200001D00D2094E704F18400FFF70DFE03460846591940F10000CDE90410DDE90410B0
:203F4000091E70F1010001D30D2081E704F19000FFF7EEFD206294F8AA00A070A078012800
:203F600001D00D2074E794F8A910012088406081608908B90D206BE704F19800FFF7D8FD58
:203F80000646B4498E4201D90D2061E7B01CE061656204F19400FFF7CBFD2844206304F1BA
:203FA0008C00FFF7C5FD2844A0624FF0000C608900FB06F1226B53184CEB0C01DDE9042003
:203FC000D21A884102D20D2042E76CE004F19C00FFF7AEFDE06200208146039000BFB9F15F
:203FE000000F16D161890398814201D80D202FE72046E16AFDF7C0FD039908440146019045
:020000040800F2
:20400000204600F051F908B1012021E70398401C039004F13C0010F80900812800D104E0F4
:2040200009F12000C0F30809D9E700BF04F13C01494401F11400FFF77BFD8046B8F1020F70
:2040400002D3E069404501D80D2001E76289A8F10200216B02FB0010606300BFA06A00EB39
:20406000D811204600F020F908B10120F0E608F07F0104F13C0202EB8100FFF759FD029041
:204080000298401C00B907E008F10100804602998842E3D00D20DBE600BF4FF0FF30A06196
:2040A00060610427F0E004F14700FFF77EFDB0F5007F01D00D20CBE604F15200FFF775FD15
:2040C0008246BAF1000F04D104F16000FFF730FD8246C4F820A04C20005DA070A0780128B3
:2040E00004D0A078022801D00D20B1E6A0780AFB00FA4920005D6081608918B16089411E5D
:20410000084008B10D20A3E604F14D00FFF74DFD2081207A00F00F0008B10D2098E604F1D3
:204120004F00FFF742FD0990099820B904F15C00FFF7FEFC099004F14A00FFF736FD069010
:20414000069808B90D2083E606985044218900EB11100890DDE90801814201D20D2077E6FB
:20416000DDE90810401A6189B0FBF1F60EB90D206EE600273848864200D803274FF6F57028
:20418000864200D8022740F6F570864200D801270FB90D205CE6B01CE061656206982844DE
:2041A000A062089828442063032F13D104F16600FFF7FBFC08B10D204AE6208908B10D206B
:2041C00046E604F16800FFF7B3FCE062E0698000079014E0208908B90D2039E6A06A5044C7
:2041E000E062022F02D1E069400007E0207F00F00100E16901EB410100EB51000790216AA3
:20420000079800F2FF10B1EB502F01D20D201FE64FF0FF30A061606180202071032F33D147
:2042200004F16C00FFF7C1FC01282DD1691C204600F03AF840BB0020207104F23A20FFF744
:20424000B4FC4AF6552188421ED104F13C0005E02C000020FDFFFF7FF5FFFF0FFFF768FC07
:204260000E49884210D104F50870FFF761FC0C49884209D104F50970FFF75AFCA06104F5C7
:204280000A70FFF755FC6061277006480088401C80B204490880E0800020D9E55252614148
:2042A000727241613400002070B504460D460026A06BA84210D0204600F0C0FA06465EB9F4
:2042C000607801232A4604F13C01FEF73DFB10B14FF0FF350126A563304670BD2DE9F047C0
:2042E00080460C4604F11A00FFF75FFC10B10020BDE8F087207820F04000401E00EB800197
:2043000001EBC0054FF00109002619E01549895D0819FFF74AFC0746B9F1000F09D0FF2DD8
:2043200001D90020E4E7B94628466D1C28F8107005E04FF6FF70874201D00020D8E7761C7E
:204340000D2EE3D3207800F0400048B1B9F1000F06D0FF2D01D90020CAE7002028F81500F0
:204360000120C5E7844A00082DE9F04704460D4616464FF00209022D77D3E069A84274D911
:204380002078012806D002284BD0032861D004280DD15FE02F4607EB5707A06A00EB57216A
:2043A0002046FFF781FF8146B9F1000F00D079E038467F1CC0F3080104F13C0001EB00087E
:2043C00005F0010028B1F1B298F8000061F31F1000E0304688F800000120E070A06A00EB1C
:2043E00057212046FFF760FF8146B9F1000F00D058E0C7F3080104F13C0001EB000805F025
:20440000010010B1C6F3071006E098F8000000F0F000C6F30321084388F800000120E0709B
:2044200040E0A06A00EB15212046FFF73DFF8146B9F1000F00D035E0B1B240F2FF1202EAA2
:20444000450304F13C02981800F061F90120E07028E000BFA06A00EBD5112046FFF724FF55
:204460008146B9F1000F01D01CE01CE0207804280BD040F2FF1101EA850204F13C01501806
:20448000FFF756FB66F31B00064640F2FF1101EA850204F13C015018314600F0FEF8012049
:2044A000E07000BF00BF4846BDE8F0872DE9F04707460C461546984684F80D800F20E072D5
:2044C00000202073002104F11A0000F020F9681E00EB800101EBC00900200646824600BF56
:2044E0004FF6FF70864204D0484609F1010937F810600D4911F80A100819314600F007F93A
:204500000EB94FF6FF760AF1010082460D28E7D34FF6FF70864202D037F8190008B945F0DB
:2045200040052570BDE8F087844A00082DE9F05F06460F4690464FF000093568BA46BB46ED
:20454000022F02D3E869B84202D80220BDE8F09FB8F1000F11D02878042802D1F07902280F
:204560000BD04FF0FF3241462846FFF7FDFE8146B9F1000F01D04846E8E700BF39463046A8
:20458000FFF788F9044604B93EE0012C01D10220DCE7601C08B90120D8E7287804280AD0D8
:2045A000002239462846FFF7DFFE8146B9F1000F01D04846CAE7D5E90610801E814206D27C
:2045C000A869401CA861287940F0010028710BF10100A04201D1A34612E0287804280DD1C4
:2045E000ABEB0A00421C002351462846FDF726FA8146B9F1000F01D04846A7E7A346A24643
:204600002746E869B842B9D800BF2878042830D1B8F1000F02D10020F0712AE0F079D8B9B5
:20462000B76811E039463046FFF734F90446022C01D202208AE7601C08B9012086E7781C15
:20464000844200D002E07F1C4745EBD100BF47450FD10220F0710CE0F079032809D1B068DF
:20466000404506D8B169B0680844404501D30220F07100206AE770B506460C461546A9B293
:2046800004F11A0000F043F83078032804D1290C04F1140000F03BF870BD00F8011B090A83
:2046A00000F8011B090A00F8011B090A00F8011B704730B500F8012B110A41EA03621B0A08
:2046C00000F8012B110A41EA03621B0A00F8012B110A41EA03621B0A00F8012B110A41EA88
:2046E00003621B0A00F8012B110A41EA03621B0A00F8012B110A41EA03621B0A00F8012B24
:20470000110A41EA03621B0A00F8012B30BD00F8011B091200F8011B70472DE9F04104462D
:2047200020680569284600F033F980464146A81CFFF7EDFF6878471C2046E16CFEF787F89C
:20474000064618E0A16B2068FFF7AEFD064606B113E020222946E06BFFF705FB012021684E
:20476000C870781E071E00D107E0203500212046FDF736FE0646002EE4D000BF0EB1012EAF
:2047800002D13046BDE8F0810220FBE730B5014600200B2200BF431003EBC01411F8015B04
:2047A0006319D8B2531E1A1EF5D130BD70B50446204600F043F80546002D38D12078032853
:2047C0002ED1207901282BD14202002104F13C00FFF7D6FA4AF6552104F23A20FFF797FF2E
:2047E000144904F13C00FFF758FF134904F50870FFF753FF04F50970A169FFF74EFF04F511
:204800000A706169FFF749FF606A401CA0636078012304F13C01A26BFEF7C6F8002020714E
:20482000607800221146FEF789F800B10125284670BD0000525261417272416170B5044604
:204840000025E078E8B16078012304F13C01A26BFEF7AAF8A0B90020E070A16AA06B401A37
:20486000216A88420DD2A07802280AD1236AA16BCA186078012304F13C01FEF795F800E0DC
:204880000125284670BD000070B50446226812F8011B01F08000002847D001F0E000C028CF
:2048A00003D101F01F01012312E001F0F000E02803D101F00F0102230AE001F0F800F0282F
:2048C00003D101F00701032302E04FF0FF3070BD00BF12F8015B05F0C000802802D04FF0D5
:2048E000FF30F4E7284661F39F100146581E031EEFD1802908D3B1F5584F02D3B1F5604FA4
:2049000002D3B1F5881F02D34FF0FF30DFE7B1F5803F0AD3A1F58030054E06EA8010054EBE
:204920003043C1F3090640EA060122600846CEE70000FF0300DC00D810B5012204A1002028
:20494000FEF770F808B9012010BD0020FCE7000053443A0070B504460D4609268CB12068C1
:2049600078B12068007860B1A0882168C988884207D121684878FEF70DF800F0010000B96C
:2049800000260EB9206800E000202860304670BD30B502465478641C6301002420462146A9
:2049A00010E0022901D1491C0BE000F0010414B14FF4004400E0002404EB6004555C2C4401
:2049C000A0B2491C9942ECD330BD70B5064600241BE02846FEF758FD85B204F0010010B164
:2049E0004FF4004000E0002000EB6400E9B2084484B204F0010010B14FF4004000E000208F
:204A000000EB640000EB252084B236F8021B0D1EDFD1204670BD4FF04070E1EE100A704799
:204A2000000002400004024000080240000C0240001002400014024000180240001C0240F6
:204A4000002002400030014000380040003C0040011000000240000002800000200000207A
:204A60000800400000401000800000802000050D08060E10070F200505060000C04E0008E4
:204A8000C44E000801030507090E10121416181C1E809A45418E418F804545454949498E81
:204AA0008F9092924F994F555559999A9B9C9D9E9F41494F55A5A5A6A7A8A9AAABACADAEC3
:204AC000AFB0B1B2B3B4B5B6B7B8B9BABBBCBDBEBFC0C1C2C3C4C5C6C7C8C9CACBCCCDCE06
:204AE000CFD0D1D2D3D4D5D6D7D8D9DADBDCDDDEDFE0E1E2E3E4E5E6E7E8E9EAEBECEDEEE6
:204B0000EFF0F1F2F3F4F5F6F7F8F9FAFBFCFDFEFF00C700FC00E900E200E400E000E500F7
:204B2000E700EA00EB00E800EF00EE00EC00C400C500C900E600C600F400F600F200FB0033
:204B4000F900FF00D600DC00A200A300A500A7209201E100ED00F300FA00F100D100AA0040
:204B6000BA00BF001023AC00BD00BC00A100AB00BB009125922593250225242561256225BB
:204B8000562555256325512557255D255C255B251025142534252C251C2500253C255E25C1
:204BA0005F255A25542569256625602550256C2567256825642565255925582552255325BF
:204BC0006B256A2518250C25882584258C2590258025B103DF009303C003A303C303B500DA
:204BE000C403A6039803A903B4031E22C603B50329226122B1006522642220232123F7007C
:204C00004822B0001922B7001A227F20B200A025A00061001A03E0001703F8000703FF001D
:204C2000010078010001300132010601390110014A012E017901060180014D0043028101B3
:204C4000820182018401840186018701870189018A018B018B018D018E018F0190019101B0
:204C6000910193019401F60196019701980198013D029B019C019D0120029F01A001A00107
:204C8000A201A201A401A401A601A701A701A901AA01AB01AC01AC01AE01AF01AF01B10171
:204CA000B201B301B301B501B501B701B801B801BA01BB01BC01BC01BE01F701C001C10118
:204CC000C201C301C401C501C401C701C801C701CA01CB01CA01CD011001DD0101008E01F5
:204CE000DE011201F3010300F101F401F401F8012801220212013A020900652C3B023B0246
:204D00003D02662C3F0240024102410246020A015302400081018601550289018A01580202
:204D20008F015A0290015C025D025E025F0293016102620294016402650266026702970152
:204D400096016A02622C6C026D026E029C01700271029D01730274029F017602770278025F
:204D600079027A027B027C02642C7E027F02A60181028202A9018402850286028702AE018B
:204D80004402B101B20145028D028E028F0290029102B7017B030300FD03FE03FF03AC0361
:204DA00004008603880389038A03B1031103C2030200A303A303C4030803CC0303008C03B4
:204DC0008E038F03D8031801F2030A00F903F303F403F503F603F703F703F903FA03FA03F9
:204DE0003004200350041007600422018A043601C1040E01CF040100C004D00444016105BA
:204E0000260400007D1D0100632C001E9601A01E5A01001F0806101F0606201F0806301F6C
:204E20000806401F0606511F0700591F521F5B1F541F5D1F561F5F1F601F0806701F0E0013
:204E4000BA1FBB1FC81FC91FCA1FCB1FDA1FDB1FF81FF91FEA1FEB1FFA1FFB1F801F0806E8
:204E6000901F0806A01F0806B01F0400B81FB91FB21FBC1FCC1F0100C31FD01F0206E01FB6
:204E80000206E51F0100EC1FF31F0100FC1F4E210100322170211002842101008321D02428
:204EA0001A05302C2F04602C0201672C0601752C0201802C6401002D260841FF1A030000AE
:204EC0005344000055000000E84E0008000000203C00000000020008244F00083C0000206B
:204EE0002C2B00001C0200080095BA0A0000000000000000010203040607080900000000B4
:204F00000000024000040240000402400000000001010000000000000000000000000000C1
:204F200000800008FFFFFFFFFFFFFFFFFFFFFFFFFFFFFFFFFFFFFFFFFFFFFFFFFFFFFFFF05
:204F4000FFFFFFFFFFFFFFFFFFFFFFFFFFFFFFFFFFFFFFFFFFFFFFFFFFFFFFFFFFFFFFFF71
:204F6000FFFFFFFFFFFFFFFFFFFFFFFFFFFFFFFFFFFFFFFFFFFFFFFFFFFFFFFFFFFFFFFF51
:204F8000FFFFFFFFFFFFFFFFFFFFFFFFFFFFFFFFFFFFFFFFFFFFFFFFFFFFFFFFFFFFFFFF31
:204FA000FFFFFFFFFFFFFFFFFFFFFFFFFFFFFFFFFFFFFFFFFFFFFFFFFFFFFFFFFFFFFFFF11
:020000040800F2
:020000040800F2
:208000000000022035A1000885A1000885A1000885A1000885A1000885A10008000000007A
:2080200000000000000000000000000085A1000885A100080000000085A100089301010819
:2080400085A1000885A1000885A1000885A1000885A1000885A100082102010827020108AE
:208060002D020108330201083902010885A1000885A1000885A1000885A1000885A1000860
:2080800085A1000885A1000885A1000885A1000885A1000885A1000885A100083F02010854
:2080A000A9980008E1970008BD98000805980008199800082D98000841980008410403083E
:2080C0004D040308590403086504030885A1000885A100086D0F0108850F01089D0F010835
:2080E000550201086905010809B40008D198000891980008E5980008A598000885A100084A
:2081000085A1000885A100085598000885A10008B90F0108D10F0108699800087D98000800
:2081200085A1000885A1000885A1000885A1000885A10008000000000000000085A100082B
:2081400085A1000885A1000885A10008FDB3000885A1000885A1000885A10008E90F010852
:20816000710403087D04030885A1000885A1000885A1000885A1000885A10008000000000D
:208180000000000085A10008000000000000000085A10008000000000000000085A1000855
:2081A00000000000000000000000000085A1000885A1000885A1000885A1000885A10008D9
:2081C00085A1000881F0004102E000BF83F0004330B54FEA41044FEA430594EA050F08BF2B
:2081E00090EA020F1FBF54EA000C55EA020C7FEA645C7FEA655C00F0E2804FEA5454D4EB3A
:208200005555B8BF6D420CDD2C4480EA020281EA030382EA000083EA010180EA020281EAA2
:208220000303362D88BF30BD11F0004F4FEA01314FF4801C4CEA113102D0404261EB4101AD
:2082400013F0004F4FEA03334CEA133302D0524263EB430394EA050F00F0A780A4F10104A4
:20826000D5F1200E0DDB02FA0EFC22FA05F2801841F1000103FA0EF2801843FA05F35941DA
:208280000EE0A5F120050EF1200E012A03FA0EFC28BF4CF0020C43FA05F3C01851EBE37108
:2082A00001F0004507D54FF0000EDCF1000C7EEB00006EEB0101B1F5801F1BD3B1F5001FCA
:2082C0000CD349085FEA30004FEA3C0C04F101044FEA445212F5800F80F09A80BCF1004F8F
:2082E00008BF5FEA500C50F1000041EB045141EA050130BD5FEA4C0C404141EB0101013CA5
:2083000028BFB1F5801FE9D291F0000F04BF01460020B1FA81F308BF2033A3F10B03B3F13D
:2083200020020CDA0C3208DD02F1140CC2F10C0201FA0CF021FA02F10CE002F11402D8BFAD
:20834000C2F1200C01FA02F120FA0CFCDCBF41EA0C019040E41AA2BF01EB0451294330BD92
:208360006FEA04041F3C1CDA0C340EDC04F11404C4F1200220FA04F001FA02F340EA030012
:2083800021FA04F345EA030130BDC4F10C04C4F1200220FA02F001FA04F340EA0300294675
:2083A00030BD21FA04F0294630BD94F0000F83F4801306BF81F480110134013D4EE77FEAEC
:2083C000645C18BF7FEA655C29D094EA050F08BF90EA020F05D054EA000C04BF1946104668
:2083E00030BD91EA030F1EBF0021002030BD5FEA545C05D14000494128BF41F0004130BD19
:2084000014F580043CBF01F5801130BD01F0004545F0FE4141F470014FF0000030BD7FEA7B
:20842000645C1ABF194610467FEA655C1CBF0B46024650EA013406BF52EA033591EA030F1B
:2084400041F4002130BD00BF90F0000F04BF0021704730B54FF4806404F132044FF0000575
:208460004FF0000150E700BF90F0000F04BF0021704730B54FF4806404F1320410F0004520
:2084800048BF40424FF000013EE700BF42004FEAE2014FEA31014FEA02701FBF12F07F4319
:2084A00093F07F4F81F06051704732F07F4208BF704793F07F4F04BF41F40021704730B52B
:2084C0004FF4607401F0004521F000411CE700BF50EA010208BF704730B54FF000050AE06D
:2084E00050EA010208BF704730B511F0004502D5404261EB41014FF4806404F132045FEA14
:20850000915C3FF4D8AE4FF003025FEADC0C18BF03325FEADC0C18BF033202EBDC02C2F179
:20852000200300FA03FC20FA02F001FA03FE40EA0E0021FA02F11444BDE600BF70B54FF0B3
:20854000FF0C4CF4E06C1CEA11541DBF1CEA135594EA0C0F95EA0C0F00F0DEF82C4481EAFB
:20856000030621EA4C5123EA4C5350EA013518BF52EA033541F4801143F4801338D0A0FBB0
:2085800002CE4FF00005E1FB02E506F00042E0FB03E54FF00006E1FB03569CF0000F18BF1D
:2085A0004EF0010EA4F1FF04B6F5007F64F5407404D25FEA4E0E6D4146EB060642EAC62126
:2085C00041EA55514FEAC52040EA5E504FEACE2EB4F1FD0C88BFBCF5E06F1ED8BEF1004FB6
:2085E00008BF5FEA500E50F1000041EB045170BD06F0004646EA010140EA020081EA030115
:20860000B4EB5C04C2BFD4EB0C0541EA045170BD41F480114FF0000E013C00F3AB8014F1EA
:20862000360FDEBF002001F0004170BDC4F10004203C35DA0C341BDC04F11404C4F1200597
:2086400000FA05F320FA04F001FA05F240EA020001F0004221F0004110EBD37021FA04F624
:2086600042EB06015EEA430E08BF20EAD37070BDC4F10C04C4F1200500FA04F320FA05F04D
:2086800001FA04F240EA020001F0004110EBD37041F100015EEA430E08BF20EAD37070BD40
:2086A000C4F1200500FA05F24EEA020E20FA04F301FA05F243EA020321FA04F001F0004131
:2086C00021FA04F220EA020000EBD3705EEA430E08BF20EAD37070BD94F0000F0FD101F011
:2086E0000046400041EB010111F4801F08BF013CF7D041EA060195F0000F18BF704703F010
:208700000046520043EB030313F4801F08BF013DF7D043EA0603704794EA0C0F0CEA135537
:2087200018BF95EA0C0F0CD050EA410618BF52EA4306D1D181EA030101F000414FF000008D
:2087400070BD50EA410606BF1046194652EA430619D094EA0C0F02D150EA013613D195EA43
:208760000C0F05D152EA03361CBF104619460AD181EA030101F0004141F0FE4141F4700171
:208780004FF0000070BD41F0FE4141F4780170BD70B54FF0FF0C4CF4E06C1CEA11541DBFE0
:2087A0001CEA135594EA0C0F95EA0C0F00F0A7F8A4EB050481EA030E52EA03354FEA013196
:2087C00000F088804FEA03334FF0805545EA131343EA12634FEA022245EA111545EA1065D1
:2087E0004FEA00260EF000419D4208BF964244F1FD0404F5407402D25B084FEA3202B61A06
:2088000065EB03055B084FEA32024FF480104FF4002CB6EB020E75EB030E22BFB61A754660
:2088200040EA0C005B084FEA3202B6EB020E75EB030E22BFB61A754640EA5C005B084FEA82
:208840003202B6EB020E75EB030E22BFB61A754640EA9C005B084FEA3202B6EB020E75EBAF
:20886000030E22BFB61A754640EADC0055EA060E18D04FEA051545EA16754FEA06164FEA9F
:20888000C30343EA52734FEAC2025FEA1C1CC0D111F4801F0BD141EA00014FF000004FF0E7
:2088A000004CB6E711F4801F04BF01430020B4F1FD0C88BFBCF5E06F3FF6AFAEB5EB030CCE
:2088C00004BFB6EB020C5FEA500C50F1000041EB045170BD0EF0004E4EEA113114EB5C046D
:2088E000C2BFD4EB0C0541EA045170BD41F480114FF0000E013C90E645EA060E8DE60CEA08
:20890000135594EA0C0F08BF95EA0C0F3FF43BAF94EA0C0F0AD150EA01347FF434AF95EA20
:208920000C0F7FF425AF104619462CE795EA0C0F06D152EA03353FF4FDAE1046194622E78C
:2089400050EA410618BF52EA43067FF4C5AE50EA41047FF40DAF52EA43057FF4EBAE12E71D
:208960004FF0FF3C06E000BF4FF0010C02E000BF4FF0010C4DF804CD4FEA410C7FEA6C5CD2
:208980004FEA430C18BF7FEA6C5C1BD001B050EA410C0CBF52EA430C91EA030F02BF90EA06
:2089A000020F0020704710F1000F91EA030F58BF994208BF90422CBFD8176FEAE37040F0F1
:2089C000010070474FEA410C7FEA6C5C02D150EA013C07D14FEA430C7FEA6C5CD6D152EA6A
:2089E000033CD3D05DF8040B704700BF8446104662468C461946634600E000BF01B5FFF7CE
:208A0000B7FF002848BF10F1000F01BD4DF808EDFFF7F4FF0CBF012000205DF808FB00BF5D
:208A20004DF808EDFFF7EAFF34BF012000205DF808FB00BF4DF808EDFFF7E0FF94BF01204F
:208A400000205DF808FB00BF4DF808EDFFF7CEFF94BF012000205DF808FB00BF4DF808EDFD
:208A6000FFF7C4FF34BF012000205DF808FB00BF4FEA410C7FEA6C5C02D150EA013C0AD116
:208A80004FEA430C7FEA6C5C02D152EA033C02D14FF0000070474FF0010070474FEA410293
:208AA00012F5001215D211D56FF47873B3EB625212D94FEAC12343F0004343EA505311F0E1
:208AC000004F23FA02F018BF404270474FF00000704750EA013005D111F0004008BF6FF08A
:208AE000004070474FF00000704700BF4A0011D212F5001211D20DD56FF47873B3EB62521F
:208B00000ED44FEAC12343F0004343EA505323FA02F070474FF00000704750EA013002D116
:208B20004FF0FF3070474FF0000070474FEA4102B2F1E04324BFB3F5001CDCF1FE5C0DD924
:208B400001F0004C4FEAC0024CEA5070B2F1004F40EB830008BF20F00100704711F0804FE8
:208B600021D113F13872BCBF01F00040704741F480114FEA5252C2F11802C2F1200C10FA99
:208B80000CF320FA02F018BF40F001004FEAC1234FEAD32303FA0CFC40EA0C0023FA02F329
:208BA0004FEA4303CCE77FEA625307D150EA01331EBF4FF0FE4040F44000704701F0004069
:208BC00040F0FE4040F40000704700BF53B94AB9002908BF00281CBF4FF0FF314FF0FF309E
:208BE00000F00CB8ADF1080C6DE904CE28F0E4FADDF804E0DDE9022304B07047704700BF6C
:208C000010F8012B11F8013B012A28BF9A42F7D0D01A7047034613F8012B002AFBD1181ADD
:208C20000138704700000000000000000000000001F0FF01102A2BDB10F0070F08D010F81D
:208C4000013B013A8B422DD010F0070F42B3F6D1F0B441EA012141EA014122F007047FF017
:208C600000070023F0E80256083C85EA010586EA010685FA47F5A3FA87F586FA47F6A5FA3A
:208C800087F68EB9EED1F0BC01F0FF0102F0070232B110F8013B013A83EA010313B1F8D159
:208CA0000020704701387047002D06BF35460338073815F0010F07D1013015F4807F02BF1F
:208CC000013015F4C03F0130F0BC0138704700BF10B5054C237833B9044B13B10448AFF331
:208CE00000800123237010BD5404002000000000DC51030808B5034B1BB103490348AFF3B0
:208D0000008008BD0000000058040020DC510308F0B5ADB00025274B01951A6C42F08052A1
:208D20001A641B6C03F080530193019B224B02951A6842F440421A601B6803F440430293EE
:208D4000029B01264FF480330224CDE908634FF48003CDE90E430627B423CDE9107308A858
:208D60000723CDE91334129405F0DEFA04F0EEFE0F220323CDE903234FF4A0514FF48053FC
:208D8000CDE9061303A80521059504F01BFF4FF48073159360231C9304231D9315A84FF0A8
:208DA00000631B971E9420962A9304F0EBFF2DB0F0BD00BF0038024000700040B0F86230EE
:208DC000013303F03F03A0F86230B0F86230B0F85E009BB298424FF0FF3018BF002070477D
:208DE000B0F8F430B0F8F000181A00F03F007047B0F8F430B0F8F0209BB293421ABFD0F8B0
:208E0000E830985C4FF0FF30704713B50DF10701044607F0D1FF90B9B4F86030B4F85C2095
:208E2000013303F03F03934209D0B4F86020616D9DF8070092B29BB28854A4F8603002B03A
:208E400010BD0000012370B50374B0F9E230013304460E4600F1940508D190F8F8302BB109
:208E6000002380F8F830284608F00CF8B4F8F2104B1C03F03F03B4F8F62092B29342FAD0D6
:208E8000D4F8EC2028465654A4F8F23007F082FF18B90349284607F0D1FF012070BD00BF4D
:208EA000BD8D0008037C33B1B0F8F220B0F8F6309BB29A42FAD1704700F11103914208BF2B
:208EC0004FF0FF31A0F8E020C0F8E83000F151020023A0F8F430C0E93B23A0F8E210A0F86F
:208EE000F630704770B54FF47A7316460022C0E90123164B03604FF6FF73A0F8E230144B71
:208F0000984204460D4614D1124B9A8AA0F8E2205B8AA0F8E030012E04BF4FF6FF73A4F808
:208F2000E2302046B4F9E020B4F9E210FFF7C4FF70BD0949284607F0EBFA0849A4F8E2001C
:208F4000284607F0E5FAA4F8E000E4E740560308A80600201C550308B0540308D454030859
:208F6000B0F9E230013310B504460ED103685B69984794F8F83043B9012384F8F83004F199
:208F80009400BDE8104007F08DBF10BD02F00703023BDBB2042B2DE9F7430E46C0F8FC10DB
:208FA00098BF1F4980F8F92098BFCC5C02F0300388BF0024302B054626D101344FF4C06716
:208FC00012F0080F14BF4FF400594FF00009082C21D0092C21D013484FF4C17107F0CAFAEB
:208FE00005F1940831463B4622464046CDF8009007F0BAFE2846FFF7B3FF0B49404603B052
:20900000BDE8F04307F0F4BE12F020071CBF01344FF48067D4E70024E2E74FF48054DFE7E7
:2090200030560308CA5503080B8E000810B50446FFF796FFB4F8F420B4F8F03092B29A428E
:209040001FBFD4F8E820D05C013303F03F0314BFA4F8F0304FF0FF3010BD000008B50649F3
:2090600006480022FFF73EFFBDE80840044905480022FFF737BF00BF001001407004002014
:209080000048004070050020836810B504462BB10322014698470023C4E90233204610BD5A
:2090A000836810B5044613B1032201469847204610BD4B1E032B9ABF880004384FF0FF3052
:2090C000704700000139435C2BB1022907D8054B33F811007047032901D8034BF8E74FF066
:2090E000FF307047C6560308CC5603082DE9F04104460F46FFF7DDFF431C054604D13F4878
:2091000040F24D1107F036FA7E1E032E28D83C4B13F8068039462046FFF7D4FF013004D1FF
:20912000364840F2571107F025FA04EB07175837BB683BB123696FEA08021A61DA6842EA7E
:209140000802DA6004EB46039B88013B0B2B4BD8DFE803F01B1B1B1B0E0E1B1B4C4C4C2857
:2091600026484FF4A9714FF0FF3807F003FAD1E7A35D04F1100029461BB1BDE8F04105F0F7
:2091800095BEBDE8F04105F059BEA35D04F1100029461BB1BDE8F04105F072BEBDE8F04189
:2091A00005F02CBE294604F1100005F049FE032E98BF144B256994BF9A574FF0FF321146A0
:2091C0002046FFF77FFF2B6A1843BB6828625BB1013A032A9ABF0A4B9A5C4FF0FF32D3437A
:2091E0002B61EB681343EB60BDE8F081294604F11000BDE8F04105F023BE00BF6056030839
:20920000D4560308D8560308036E10B5044653B150F8103F6FF001021A61DA6842F0010271
:20922000DA6005F00FFB20460121FFF75FFF20460221FFF75BFF20460321FFF757FF204604
:209240000421BDE81040FFF751BF036901399962704700002DE9F0418CB00E46044690469F
:209260001F46FFF726FF411C054604D14B4840F24D2107F07FF9013E04EB4603A3F80480B9
:209280004FF6FF7305932369D5B95B6B069300204FF6FF720123CDE90900CDE90123CDE9BD
:2092A0000300079008900B90B8F10C0F1ED8DFE808F0101016323537404244464E51530096
:2092C000042D01D19B6BE1E7082D0CBFDB6B1B6CDCE705902A4605A904F1100004E010235E
:2092E00005932A4605A9E01805F02AFC7B1C0FD0384606F077FDA8424AD12949384607F05B
:20930000D5F82749384607F015F9C0F30050A0550CB0BDE8F08120230593DBE73023FBE7F1
:2093200060232A4605A904F11000059305F034FCDCE77023F5E75023EEE74023ECE7019089
:209340002A4601A904F1100005F0C0FCCEE702230193F5E70A23FBE704F1100801A901909C
:209360002A46404605F0B2FC032E9ABF0D4B99574FF0FF3104EB41030C225A80204602234D
:20938000CDE90133FFF795FE01A902464046DBE7024840F2B72107F0EDF8B2E76056030896
:2093A000DC520308D8560308013903299ABF00EB410080880020704703691A6819B142F087
:2093C00080021A60704722F08002FAE7F8B504460E461546006907F081FA2A46314602F00B
:2093E00027FD206907F0DCFA0746206907F076FA874206D0206907F0D3FA2A46314602F0F1
:2094000017FDC4E91465F8BD0269D36823F00103D3605830FFF738BE006E003818BF01205B
:2094200070470121103005F01FBA0000264A904203462ED0B0F1804F2DD0A2F57C42904228
:209440002BD002F58062904229D002F58062904227D04FF6FF701D4A934224D01C4A9342AC
:2094600023D01C4A934222D002F57052934220D0194A93421FD0194A93421ED0184A9342CA
:209480001DD0184A93421CD0174A934208BF0D2070470020DFE70120DDE70220DEE7032006
:2094A000DFE70420E4E70520E5E70620E6E70720E7E70820E8E7092070470A2070470B203B
:2094C00070470C20704700BF000001400010004000140040000401400044014000480140FB
:2094E00000180040001C004000200040014670B5044651F8100FFFF799FF0546084607F01C
:209500005BF9094A002342F8253004F15806E36004F1A805B54204D0103D2846FFF7C0FD81
:20952000F8E7204670BD00BF70060020F8B5002303660367C0F88030C0F89030C0F8A03059
:20954000044608460D46FFF771FF4FF6FF739842064603D11E482F2107F00CF81D4A25616B
:2095600004F10C0342F8263000230D2204F11006C4E90C33C4E90E33C4E91033C4E914234C
:2095800084F82C30A36484F84C3084F84D30E460304607F019F804F1580504F1A8072846D5
:2095A0001035FFF771FDBD42F9D100234FF6FF72C4E90033C4E90632C4E90833A3606361EC
:2095C0008023A362304605F06BFA2046F8BD00BF605603087006002030B59FB0142204462E
:2095E000002102A829F0CEF8002501A902A8019504F0AAFB206907F061FA012808D0022813
:2096000021D01B4840F2FF4106F0B4FF2C4603E0059D04F079FB04465C22002107A829F0CB
:20962000B1F807A804F0BAFD9DF87430012B10D125F48065B5F5C05F09D004F05FFB0446A9
:2096400020461FB030BD069D04F06EFBE3E7A400F6E7B5F5C05F05D006D825F48065B5F579
:20966000805FEDD16400EBE7B5F5E05FF9E700BF60560308012A38B505460C4607D0022A16
:2096800012D004B1013C2B69DC62EC6138BDFFF7A3FF0849B0FBF1F044432B69210C99622A
:2096A0000131B4FBF1F4ECE7FFF796FFB0FBF4F4F3E700BF40420F00036970B55C6A9D6A6B
:2096C000012905F1010503D002291CD0204670BDFFF782FF064604FB05F0FEF7B5FE0EA3D7
:2096E000D3E90023FEF72AFF044630460D46FEF7ABFE02460B4620462946FFF749F8FFF721
:20970000F5F90446E2E7FFF767FF6C43B0FBF4F4DCE700BFAFF300800000000080842E4193
:209720002DE9F04180461D461446FFF7C2FCD8F810309E6A431C074606F1010604D12648A6
:2097400040F2F62106F016FF822D34D01ED8102D0BD865B1D8F81030DA6A02FB044201241A
:20976000AC40013CB2FBF4F401E0812D19D0D8F81030DA6A4FF6FF718A4203D1B4F5803FA2
:2097800008BF1446F7B95C63BDE8F081832DEED1D8F81030DA6A02FB04446422B4FBF2F400
:2097A000E5E74046FFF718FF0C4AB0FBF2F04443B4FBF6F4DBE74046FFF70EFF7443B0FB9A
:2097C000F4F4D4E7042F01D19C63DDE7082F0CBFDC631C64D8E700BF6056030840420F008D
:2097E00010B5074C206810B1043005F051F8606A20B1BDE81040043005F04AB810BD00BF4F
:2098000070060020034B186810B1043005F040B8704700BF70060020034B586810B10430F3
:2098200005F036B8704700BF70060020034B986810B1043005F02CB8704700BF7006002011
:20984000034BD86810B1043005F022B8704700BF70060020034B186910B1043005F018B821
:20986000704700BF70060020034B586910B1043005F00EB8704700BF70060020034B9869C2
:2098800010B1043005F004B8704700BF70060020034BD86910B1043004F0FABF704700BF6F
:2098A00070060020FFF7F4BF034B186A10B1043004F0EEBF704700BF70060020034B986AA7
:2098C00010B1043004F0E4BF704700BF70060020034BD86A10B1043004F0DABF704700BF68
:2098E00070060020034B586B10B1043004F0D0BF704700BF7006002038B5002383608B6857
:2099000004460D462BB102229847EB68E360AB68A360204638BD30B587B002AD0446284641
:20992000FFF7EAFF95E803006B4683E8030094E8030085E8030093E80300049BA268A36090
:20994000059B049284E80300E268E36028460592FFF7A6FB204607B030BD38B504460D46A5
