:020000040800F2
:10000000182B00206D020008E50D0008FD0800080F
:10001000E10D0008A1050008E1180008000000003B
:100020000000000000000000000000004D17000864
:10003000A505000800000000E90D000851170008A0
:10004000870200088702000887020008870200086C
:10005000870200088702000887020008870200085C
:10006000870200088702000887020008870200084C
:10007000870200088702000887020008870200083C
:10008000870200088702000887020008870200082C
:10009000870200088702000887020008870200081C
:1000A000870200088702000887020008870200080C
:1000B00087020008870200088702000887020008FC
:1000C00087020008870200088702000887020008EC
:1000D00087020008870200088702000887020008DC
:1000E00087020008870200088702000887020008CC
:1000F00087020008870200088702000887020008BC
:1001000087020008870200088702000887020008AB
:10011000870200088702000887020008870200089B
:10012000870200088702000887020008870200088B
:10013000870200080000000000000000870200089D
:10014000870200088702000887020008870200086B
:10015000870200088702000887020008870200085B
:10016000870200088702000887020008870200084B
:1001700087020008870200088702000800000000CC
:1001800000000000870200080000000000000000DE
:10019000870200080000000000000000870200083D
:1001A00000000000000000000000000087020008BE
:1001B00087020008870200088702000887020008FB
:1001C0008702000800F002F800F040F80AA090E86A
:1001D000000C82448344AAF10107DA4501D100F002
:1001E00035F8AFF2090EBAE80F0013F0010F18BF8F
:1001F000FB1A43F0010318479C3F0000BC3F00007E
:10020000103A24BF78C878C1FAD8520724BF30C842
:1002100030C144BF04680C60704700000023002414
:1002200000250026103A28BF78C1FBD8520728BF06
:1002300030C148BF0B6070471FB503F05FFD9DE8FC
:10024000030000F0CFF81FBD10B510BD00F026F977
:100250001146FFF7F1FF03F0B3F800F044F903B4DF
:10026000FFF7F2FF03BC00F075F900000948804772
:1002700009480047FEE7FEE7FEE7FEE7FEE7FEE788
:10028000FEE7FEE7FEE7FEE704480549054A064BA0
:1002900070470000CD180008C501000818070020AD
:1002A000182B0020182700201827002070B50646BC
:1002B00000F07CF8056806F10B0020F00704B4425A
:1002C0009CBF002070BD2B466A68BAB11068A0427E
:1002D00010D304F1080188423CBF5068586007D32E
:1002E0005168101941601168091B01605860146061
:1002F000101D70BD13465268002AE7D121462846DA
:1003000000F05CF80028DED170BD70B50446051F12
:1003100000F04CF80068002C14BF446870BD002C3D
:1003200018BFAC423CBF20466468F8D301680A1885
:10033000AA4218BF456003D12A68054611440160EE
:1003400028684119A1421CBF6C6070BD616869607A
:1003500021680844286070BD4FF0000200B51346C4
:1003600094469646203922BFA0E80C50A0E80C50D5
:10037000B1F12001BFF4F7AF090728BFA0E80C5086
:1003800048BF0CC05DF804EB890028BF40F8042B7F
:1003900008BF704748BF20F8022B11F0804F18BFEC
:1003A00000F8012B7047704770477047004870474E
:1003B000C0060020704770477047704738B5044644
:1003C0000A4600206946AFF30080002808BF38BD08
:1003D00002460099204600F03FF8012038BD012078
:1003E00000F054B8F8B5AFF30080054600200C4685
:1003F000102000BF0646A819A0420DD93246694612
:100400000020AFF30080070008BF00F03FF800981D
:10041000A04218BF0546C419FFF7C8FF056007468C
:10042000F01D20F007004619284600F00AF8B442F3
:1004300008BFF8BDA21B31463868BDE8F84000F09F
:100440000BB800210160C0E901107047102070470F
:1004500000487047B8060020034640688C460028D4
:1004600018BF88423CBF03464068F8D31868184458
:10047000884207D00CF1030020F00700001D411A4C
:10048000521A0146081D0A60FFF73FBF10B500F081
:1004900039F8BDE8104000F02FB870477546FFF7F7
:1004A000D7FFAE4605006946534620F00700854653
:1004B00018B020B5FFF7E8FEBDE820404FF0000679
:1004C0004FF000074FF000084FF0000B21F007013C
:1004D000AC46ACE8C009ACE8C009ACE8C009ACE87F
:1004E000C0098D46704710B50446AFF30080204622
:1004F000BDE81040FFF7B3BE002801D000F02AB8D5
:100500007047000010B5012805D0002103A000F0BD
:1005100027F8012010BD09A1F8E700005349475210
:10052000544D454D3A204F7574206F6620686561C3
:1005300070206D656D6F7279000000003A2048658B
:100540006170206D656D6F727920636F7272757066
:100550007465640001491820ABBEFEE72600020066
:1005600070B505460C460A2000E06D1C00F011F83D
:1005700035B128780028F8D102E0641C00F009F8B1
:1005800014B120780028F8D1BDE870400A20AFF3FC
:10059000008008B569468DF800000320ABBE08BD99
:1005A00000BFFEE770470000014908607047000087
:1005B0000C3C024030B10749096841F48061054AAA
:1005C000116005E00349096821F48061014A116066
:1005D00070470000003C024070B504460A46002601
:1005E000092502B909E0012A01D1160205E0022A13
:1005F00001D1160201E04FF4407600F09FF8054665
:10060000092D28D11548006820F44070134908606E
:1006100008460068304308600846006820F0F8008B
:1006200008600846006844F0020108430B4908606E
:100630000846006840F48030086000F07FF8054606
:100640000648006820F00200044908600846006877
:1006500020F0F8000860284670BD0000103C024001
:1006600009201349096801F48031B1F5803F01D1B7
:1006700001201CE00E49096801F0100109B10620B3
:1006800015E00B49096801F4807109B102200EE000
:100690000749096801F0E00109B1072007E00449B2
:1006A000096801F0020109B1082000E00920704743
:1006B0000C3C02400348006840F0004001490860DB
:1006C00070470000103C024030B502460C46092538
:1006D00000F034F80546092D19D10E48006820F4C1
:1006E00040700C4908600846006840F400700860DB
:1006F0000846006840F001000860146000F01EF831
:1007000005460448006820F00100024908602846B8
:1007100030BD0000103C02400548006800F0004079
:1007200028B1044802490C39086003480860704742
:10073000103C024023016745AB89EFCD08B5092085
:100740000090FFF78DFF009002E0FFF789FF009017
:100750009DF800000128F8D09DF8000008BD0000B9
:1007600010B501460A0ACBB2054850F822000069CC
:1007700001249C40204008B1012010BD0020FCE76E
:10078000083D0008F0B504460B46200AE1B24E4D84
:100790002D680126864035434B4E35604B4D55F84C
:1007A00020502D684F000326BE40B543474E56F8F3
:1007B0002060356003F003054E00B540434E56F807
:1007C000206036683543414E56F8206035603F4D15
:1007D00055F82050ED684F000326BE40B5433B4E10
:1007E00056F82060F560394D55F82050ED684F00FF
:1007F000C3F34116BE403543344E56F82060F560D1
:1008000003F00305012D03D003F00305022D2FD1C2
:100810002E4D55F820506D6801268E40B5432B4E65
:1008200056F820607560294D55F820506D68C3F367
:1008300080068E403543254E56F820607560234D66
:1008400055F82050AD684F000326BE40B5431F4EFB
:1008500056F82060B5601D4D55F82050AD684F002A
:10086000C3F3C106BE403543184E56F82060B5604C
:1008700003F00305022D25D1144D55F820502035E5
:10088000CE1055F826504E07F70E0F26BE40B54342
:100890000E4E56F820602036CF1046F827500B4DEC
:1008A00055F820502035CE1055F826504E07F60E3C
:1008B00002FA06F63543054E56F820602036CF1072
:1008C00046F82750F0BD000030380240083D0008CF
:1008D00030B5020AC3B231B101249C40064D55F82F
:1008E0002250AC6107E003F110040125A540024C41
:1008F00054F82240A56130BD083D000800BFFEE766
:10090000024909688143014A11607047303802404A
:1009100008B5054909680143034A11601146096891
:100920000140009100BF08BD3038024008B50549BC
:1009300009680143034A11601146096801400091AA
:1009400000BF08BD30380240024909680143014A2E
:100950001160704710380240024909688143014A1A
:100960001160704710380240024909680143014A8A
:100970001160704720380240024909688143014AEA
:100980001160704720380240024909688143014ADA
:10099000116070474438024008B5054909680143B1
:1009A000034A1160114609680140009100BF08BD6B
:1009B0004438024008B5054909680143034A1160FB
:1009C000114609680140009100BF08BD443802404B
:1009D000024909680143014A116070472438024006
:1009E000024909688143014A116070472438024076
:1009F00070B5044600252948844206D10120FFF73E
:100A0000A3FF0120FFF7A8FF46E02548844206D156
:100A10000220FFF799FF0220FFF79EFF3CE02148EC
:100A2000844206D10420FFF78FFF0420FFF794FFD4
:100A300032E01D48844206D10820FFF785FF0820D8
:100A4000FFF78AFF28E01948844206D11020FFF7FB
:100A50007BFF1020FFF780FF1EE01548844206D17F
:100A60002020FFF771FF2020FFF776FF14E01148E8
:100A7000844206D14020FFF767FF4020FFF76CFF5C
:100A80000AE00D48844206D18020FFF75DFF8020F8
:100A9000FFF762FF00E00125284670BD000002401C
:100AA0000004024000080240000C02400010024016
:100AB0000014024000180240001C0240F0B502463B
:100AC0000B4600240021186890FAA0F0B0FA80F4D8
:100AD0008AE00125A540186800EA050100297DD0BB
:100AE0005868012802D0586802281CD19868956877
:100AF00091FAA1F6B6FA86F677000326BE40B54312
:100B000091FAA1F6B6FA86F6760000FA06F63543B3
:100B1000956000BFD86855688D4301FB00F63543EA
:100B2000556000BF00BF1869D56891FAA1F6B6FA02
:100B300086F677000326BE40B54391FAA1F6B6FAD1
:100B400086F6760000FA06F63543D56000BF586891
:100B5000022831D191FAA1F0B0FA80F0082814D21D
:100B60005869156A91FAA1F6B6FA86F6B7000F260B
:100B7000BE40B54391FAA1F6B6FA86F6B60000FA81
:100B800006F63543156200BF16E05869556A0E0A2D
:100B900096FAA6F6B6FA86F6B7000F26BE40B5431B
:100BA0000E0A96FAA6F6B6FA86F6B60000FA06F629
:100BB0003543556200BF00BF5868156891FAA1F629
:100BC000B6FA86F677000326BE40B54391FAA1F641
:100BD000B6FA86F6760000FA06F600E003E0354342
:100BE000156000BF00BF641C1868E04000287FF457
:100BF00070AFF0BD30B5036A91FAA1F4B4FA84F491
:100C0000A5000F24AC40A34391FAA1F4B4FA84F4F4
:100C1000A40002FA04F42343036230BD30B5436AF2
:100C20000C0A94FAA4F4B4FA84F4A5000F24AC409E
:100C3000A3430C0A94FAA4F4B4FA84F4A40002FACC
:100C400004F42343436230BD30B5036891FAA1F444
:100C5000B4FA84F465000324AC40A34391FAA1F4F0
:100C6000B4FA84F4640002FA04F42343036030BD50
:100C700030B5C36891FAA1F4B4FA84F46500032492
:100C8000AC40A34391FAA1F4B4FA84F4640002FAEC
:100C900004F42343C36030BD30B5836891FAA1F4F6
:100CA000B4FA84F465000324AC40A34391FAA1F4A0
:100CB000B4FA84F4640002FA04F42343836030BD80
:100CC0004FF47A71B0FBF1F2521E4FF0E0235A61FB
:100CD00000229A6105221A6100BF704770B5044670
:100CE00001251548844206D18014FFF771FEA01437
:100CF000FFF776FE00251148844206D10014FFF765
:100D000033FE2014FFF738FE00250D48844206D13B
:100D1000C013FFF729FEE013FFF72EFE0025094858
:100D2000844206D14014FFF753FE6014FFF758FECB
:100D30000025284670BD000000300140003800400A
:100D4000003C00400034014070B505460C460126C9
:100D500000BF2868C0F3801050BBD4E900010843ED
:100D6000A1680843E16808432169084361690843B1
:100D7000A1690843E1690843216A084329684FF6DD
:100D8000BF72914308432860686820F004006169DD
:100D900040EA11406860206AB0F5005F03D1284640
:100DA000616A00F00BF82846616A00F007F8002637
:100DB000E86920F40060E861304670BD8AB20261E3
:100DC00070470000014908607047000000000020E3
:100DD00010B58020FFF79CFD0120FFF799FD10BDA5
:100DE00000BFFEE700BFFEE7704710B500223821C4
:100DF0004FF48570FFF7C6FC10BD10B54FF4857039
:100E0000FFF7AEFC08B9012010BD0020FCE710B5CB
:100E1000002218210420FFF7B5FC002000F03AFA68
:100E200010BD10B5082401210420FFF751FD02E098
:100E3000FF2000F028F8201EA4F10101CCB2F7D168
:100E400010BD70B505464FF6FF7401E0601E84B218
:100E5000FF2000F018F8A84201D0002CF6D10CB900
:100E6000FF2070BD0020FCE710B5002219210420EE
:100E7000FFF788FC01210420FFF72AFD072100204D
:100E800000F012FB10BD10B504462146002000F012
:100E900091FBC0B210BD0000F8B5FFF7A6FFFFF749
:100EA000ACFF08B9AA20F8BDFFF7DEFFFFF7B9FFD6
:100EB000002503E0FF20FFF7E6FF6D1C142DF9D39A
:100EC000142600BF95220021084600F013F90446BD
:100ED000012C03D0301EA6F10106F3D100205149A8
:100EE0000870012C71D18DE087224FF4D571082054
:100EF00000F000F9012844D1002505E0FF20FFF7AC
:100F0000C2FF0DF805006D1C042DF7D39DF80200FB
:100F1000012877D19DF80300AA2873D14FF6FE76F9
:100F200000BF01220021372000F0E4F801229107E0
:100F3000292000F0DFF804461CB1301EA6F101069E
:100F4000EFD1002E5ED0012200213A2000F0D2F82D
:100F5000002857D1002505E0FF20FFF794FF0DF88A
:100F600005006D1C042DF7D39DF8000000F0400033
:100F700018B106202B49087002E0042029490870A6
:100F800041E001220021372000F0B4F801220021C5
:100F9000292000F0AFF80446012C17DC022021497B
:100FA00008704FF6FE7600BF01220021372000F0C6
:100FB000A1F801220021292000F09CF80446B4B1D8
:100FC000301EA6F10106EFD111E01DE00120154908
:100FD00008704FF6FE7600BF01220021104600F097
:100FE00089F804461CB1301EA6F10106F4D12EB1D9
:100FF00001225102102000F07DF810B100200949B3
:10100000087000E070E700BFFFF70BFF00F0E0F8AA
:101010000448007808B1002045E70CB1204642E7BB
:10102000AA2040E7140000202DE9F04106460F46B3
:10103000154619480078062800D07F02012D0CD1F2
:1010400001223946112000F055F80446FCB9690226
:10105000304600F023F8044619E0012239461220F8
:1010600000F048F8044600BF4FF40071304600F02D
:1010700015F8044606F50076681EC0B2051E01D0BC
:10108000002CF1D0012200210C2000F033F8FFF7F2
:10109000C8FE2046BDE8F0811400002070B504466B
:1010A0000D46FE20FFF7CDFE08B1012070BD04E023
:1010B000FF20FFF7E8FE2070641C281EA5F1010147
:1010C0008DB2F5D1FF20FFF7DEFEFF20FFF7DBFE3C
:1010D0000020EBE710B500210420FFF7F9FB4FF4E7
:1010E000167000F07BF808B9002010BDFFF799FEDC
:1010F0000120FAE72DE9F04105460C4617464FF06E
:101100000008FFF78EFEFFF7E5FF10B1FF20BDE8F6
:10111000F0814FF4167000F061F808B1FF20F6E797
:1011200045F04000FFF7AFFE200EFFF7ACFEC4F322
:101130000740FFF7A8FEC4F30720FFF7A4FEE0B2C4
:10114000FFF7A1FE3846FFF79EFE0C2D02D1FF20CF
:10115000FFF799FE4FF01F0800BFFF20FFF793FE37
:10116000064606F0800030B1B8F10000A8F1010198
:1011700001F0FF08F1D13046C9E770B506460D46CB
:101180004FF4167000F02AF808B1012070BD28460F
:10119000FFF779FEFD2D19D0002404E0305DFFF744
:1011A00072FE601C84B2B4F5007FF7DBFF20FFF70E
:1011B0006AFEFF20FFF767FEFF20FFF764FE04468C
:1011C00004F01F00052801D00220DFE70020DDE742
:1011D00010B50721002000F073F910BD70B504466A
:1011E00002F05CF9051906E002F058F9401B02D440
:1011F0004FF0FF3070BDFF20FFF745FEFF28F3D111
:101200000020F7E72DE9F04106460F461546204835
:101210000078062800D07F02012D0CD1012239462A
:101220001820FFF767FF04466CBBFE213046FFF72E
:10123000A4FF044627E016480078012809D00122BF
:1012400000213720FFF756FF012229461720FFF71C
:1012500051FF012239461920FFF74CFF044694B98B
:1012600000BFFC213046FFF788FF044606F50076F4
:10127000681EC0B2051E01D0002CF2D0FD21002056
:10128000FFF77BFF0446FFF7CCFD2046BDE8F08169
:101290001400002010B5044624B1012C06D0022C05
:1012A0000CD107E00120FFF72BFB07E00220FFF73E
:1012B00027FB03E00220FFF723FB00BF00BF10491C
:1012C00051F82400FFF794FB24B1012C07D0022C25
:1012D0000FD109E04FF48050FFF756FB09E04FF4BF
:1012E0008040FFF751FB04E04FF40040FFF74CFB58
:1012F00000BF00BF034951F82400FFF7EFFC10BD09
:1013000008000020283D000810B586B004461821CA
:101310006846FFF721F824B1012C06D0022C0CD12D
:1013200007E00120FFF702FB07E00220FFF7FEFACB
:1013300003E00220FFF7FAFA00BF00BF564830F87A
:101340001400564931F814100843554931F8141067
:101350000843009002200190032002900020039097
:1013600001200490052005904E4951F8240069465B
:10137000FFF7A4FB484A32F814104A4A52F82400F6
:101380000222FFF761FC012C09D1434A32F8141004
:10139000444A52F824000522FFF740FC08E03E4A88
:1013A00032F814103F4A52F824000522FFF722FCBD
:1013B000394A32F814103B4A52F824000222FFF74F
:1013C0006BFC354A32F81410364A52F824000122D8
:1013D000FFF74EFC314A32F81410324A52F824001A
:1013E0000222FFF731FC012C09D12C4A32F81410EB
:1013F0002C4A52F824000522FFF710FC08E0274A87
:1014000032F81410274A52F824000522FFF7F2FBA5
:10141000224A32F81410234A52F824000222FFF71D
:101420003BFC1E4A32F814101E4A52F824000122D6
:10143000FFF71EFC1A4A32F814101A4A52F8240018
:101440000222FFF701FC012C09D1154A32F81410D1
:10145000144A52F824000522FFF7E0FB08E0104A86
:1014600032F814100F4A52F824000522FFF7C2FB8D
:101470000B4A32F814100B4A52F824000222FFF7EC
:101480000BFC074A32F81410064A52F824000122D5
:10149000FFF7EEFB06B010BD343D00083A3D0008F2
:1014A000403D00080800002070B504460D46204667
:1014B000FFF72AFF2946204600F002F870BD000021
:1014C00070B58AB005460E4628216846FEF744FFEF
:1014D000082E15D2DFE806F012100E0C0A080604DA
:1014E00038240FE030240DE028240BE0202409E00C
:1014F000182407E0102405E0082403E0002401E09C
:10150000382400BF00BF25B1012D07D0022D0FD117
:1015100009E04FF48050FFF74DFA09E04FF48040A6
:10152000FFF748FA04E04FF40040FFF743FA00BF2A
:1015300000BF002000904FF48270019000200290C4
:1015400002200390012004904002059006940020A0
:101550000790089007200990154951F82500016867
:1015600021F04001016000BF114951F82500694692
:10157000FFF7EAFB012818D00D4A52F82500002198
:10158000426822F010020A43426000BF084951F845
:101590002500016841F04001016000BFFF2128469D
:1015A00000F008F800200AB070BD0120FBE7000041
:1015B000283D000870B502460B4600210020044675
:1015C00006E0481C80B20146C82901DD002070BD3C
:1015D000144D55F822008568C5F34005002DF0D064
:1015E000104D55F8220000F10C052B8000BF0020A3
:1015F000014606E0481C80B20146C82901DD0020F2
:10160000E5E7084D55F82200856805F00105002D35
:10161000F0D0044D55F82200C568ADB22C462046E6
:10162000D5E70000283D000801461C48814201D250
:10163000002070471A48814201D20820F9E7194872
:10164000814201D21020F4E71748814201D21820CC
:10165000EFE71648814201D22020EAE71448814290
:1016600001D22820E5E71348814201D23020E0E78B
:101670001148814201D23820DBE71048814201D273
:101680004020D6E70E48814201D24820D1E70D48DC
:10169000814201D25020CCE75820CAE70040000820
:1016A0000080000800C000080000010800000208D7
:1016B00000000408000006080000080800000A08EE
:1016C00000000C0800000E0801460868704710B5BD
:1016D000FFF722F840F2F310FEF766FFFEF7EAFF8D
:1016E00010BD000070B50925FFF716F80020FEF7C1
:1016F00061FF134C1348844215D210E02046FFF7D7
:10170000E3FF401C50B12046FFF78EFF0646022142
:10171000FEF762FF0546092D01D003E0241D0A48AB
:101720008442EBD300BF0120FEF744FFFEF7C2FF67
:10173000092D01D1002070BD4FF0FF30FBE7000004
:10174000008000080000FF1FFBFF07087047000033
:1017500010B508480068401C064908600846006843
:10176000401C08B9002008600248006800F00EFA2A
:1017700010BD00000400002070B502204E49096829
:1017800021F00F0101434C4A116000BF00BF00BFB0
:101790004948006800F00F000228F8D1400347498B
:1017A000096821F440410143444A116000BF00BF71
:1017B0001046006820F480301146086000BF00BF6A
:1017C0003F48006840F480303D49086000BF00BFDA
:1017D00000BF3B480068C0F340400028F8D04FF4F9
:1017E000800106224823002041EA020444EA8314CF
:1017F000334D2D1D2D68334E35402C43304D2D1D5E
:101800002C602C46246824F4403404432C602C467D
:10181000246824F0E04404432C6000BF00BF281F6C
:10182000006840F08070291F086000BF00BF00BF43
:1018300023480068C0F340600028F8D00020204909
:101840000831096821F0F00101431D4A0832116096
:1018500000BF90141146096821F4E0510143116062
:1018600000BF00201146096821F460410143116066
:1018700000BF02201146096821F0030101431160F5
:1018800000BF00BF00BF0E480830006800F00C0029
:101890000828F7D10C48FFF713FA0B48FFF792FA24
:1018A000002007498C31096821F080710143044A06
:1018B0008C32116000BF70BD003C024000700040DF
:1018C000003802400080BFFF00A24A0403480068BD
:1018D00040F47000014908607047000088ED00E0A6
:1018E00000BFFEE72DE9FC4100F0AAF800F0A0F8E7
:1018F00010B10520BDE8FC8100F0EAF805460DB105
:101900002846F7E7002600BF4FF0FF30009001ABFC
:10191000042269462B4801F0B5F80446019868B1E5
:10192000009800F001F905460DB9761C06E025483F
:1019300000F068FF01F0EAFB0620DBE714B901982C
:101940000028E1D100F0E6F801221FA11D4800F0B7
:1019500095FF04461CB101F0D9FB0720CAE71E4FD2
:10196000002600BF4FF0FF30009001AB0422694613
:10197000144801F087F80446019868B13868009966
:10198000884202D13F1D761C06E00E4800F03AFF67
:1019900001F0BCFB0720ADE714B901980028E1D1A4
:1019A000084800F02FFF0DA001F099FB10B10BA02B
:1019B00001F024FA09A104A001F032F901F0A6FB1C
:1019C000002097E7900400206669726D7761726568
:1019D0002E62696E00000000008000086F6C642EAB
:1019E00062696E0000B500F005F808B9002000BD7E
:1019F0000420FCE705480068A0F10050B0F5003F66
:101A000001D8002070470220FCE700000080000899
:101A10000146B1F5F02F01D8002070470320FCE704
:101A200010B5FFF7EAF908B1FFF7F1F9002010BD92
:101A300010B5FFF757FE08B9002010BD0520FCE7E0
:101A400010B5FFF744FE002010BD000010B5FFF7F1
:101A5000D4F908B9092010BD01F054FB08B90120E0
:101A6000F9E701220CA1104800F008FF18B101F0BD
:101A70004DFB0220EFE70C49C868FFF7C9FF30B102
:101A8000094800F0BFFE01F041FB0320E3E70648F0
:101A900000F0B8FE0020DEE76669726D776172655E
:101AA0002E62696E000000009004002070B50648A8
:101AB00044682546054908600146086880F308889F
:101AC00000BFA84770BD00000080000808ED00E0DE
:101AD00010B5012208A10C4800F0D0FE04461CB14C
:101AE00001F014FB022010BD084809490860FEF708
:101AF00013FE0020F7E700006669726D776172657A
:101B00002E62696E00000000900400200080000832
:101B10002400002010B5FEF7CDFD024800F072FE53
:101B2000002010BD9004002010B504461448006841
:101B30001449884204D8124800681349884203D2E5
:101B4000FEF7B8FD062010BD21460D480068FEF7DF
:101B5000BBFD09280ED10A4800680068A04203D0E6
:101B6000FEF7A8FD0620EEE705480068001D0449C1
:101B7000086003E0FEF79EFD0620E4E70020E2E7B0
:101B800024000020FCFF07080080000810B5014673
:101B90006420B1FBF0F200FB121060B90820064B84
:101BA0005A6920EA020302EA000443EA0443024CB1
:101BB000A36100BF00BF10BD000C0240082001045B
:101BC000054A916100BF00BF044909688143034A87
:101BD000116000BF70470000000C02403038024026
:101BE00000B587B0182101A8FEF7B6FB08200D4903
:101BF000096801430B4A11601146096801400091D0
:101C000000BF00BF0190032003900120029001A9B2
:101C10000548FEF753FF08200349886100BF07B05D
:101C200000BD000030380240000C024070B5044690
:101C30000D460020E070401E20632946204601F03A
:101C4000ADFD08B1042070BD04F2322001F0B1FBFB
:101C50004AF65521884201D00320F4E700BF94F8EA
:101C60003400E92807D094F83400EB2803D094F826
:101C70003400E82811D1032209A104F16A0001F01F
:101C8000E5FB08B90020DEE7052206A104F1860085
:101C900001F0DCFB08B90020D5E70220D3E7000003
:101CA000464154004641543332000000024600E0F1
:101CB000521C107810B110788842F9D11078704712
:101CC0000246891E9069801E884201D80020704714
:101CD0005389D06A03FB0100F9E700002DE9F047C2
:101CE00080460C4604F11A0001F063FB10B100209D
:101CF000BDE8F087207800F03F00401E00EB800137
:101D000001EBC0054FF00109002621E01849895D6B
:101D1000081901F04EFB0746B9F1000F11D0FF2D55
:101D20000BD8384601F0F8F8824629466D1C38F881
:101D3000110001F0F1F8824501D00020D8E7B94642
:101D400005E04FF6FF70874201D00020D0E7761CF7
:101D50000D2EDBD3207800F0400038B1B9F1000F30
:101D600004D038F8150008B10020C1E70120BFE712
:101D7000503D00082DE9F04782468846DAF80040D9
:101D8000B8F1000F06D1276917B1A069B84215D87C
:101D9000012713E04146504601F022FA0546022D84
:101DA00002D20120BDE8F087681C08B92846F9E78F
:101DB000A069A84201D92846F4E74746606908B9F6
:101DC0000020EFE70026474518D17E1CA069B042ED
:101DD00000D802263146504601F002FA0546012D90
:101DE00001D0681C08B92846DCE73DB12569022D01
:101DF00003D3A069A84200D92F460026E6B93E4683
:101E000000BF761CA069B04204D80226BE4201D9A8
:101E10000020C7E73146504601F0E2F9054605B912
:101E200009E0012D01D0681C08B92846BAE7BE4276
:101E3000E7D10020B6E700BF4FF0FF323146204621
:101E400001F00CFD8146B9F1000F08D1B8F1000F87
:101E500005D032464146204601F000FD8146B9F1E9
:101E6000000F0DD12661D4E90510801E814202D8F1
:101E70006069401E6061207940F00100207107E038
:101E8000B9F1010F02D14FF0FF3000E0012006460A
:101E9000304687E72DE9F34F83B081460498006808
:101EA0000090D9F80000D0F80CA0002500BF6846CB
:101EB00001F0A0FE83460BF1010018B9062005B021
:101EC000BDE8F08FBBF5803F05D34FEA1B422846A3
:101ED0006D1C2AF810201FFA8BF4202C03DB2F2C0A
:101EE00001D05C2C00D111E0802C06DA21467BA0C9
:101EF000FFF7DCFE08B10620E1E7FF2D01D3062045
:101F0000DDE728466D1C2AF81040D0E700BF202CE2
:101F100001DA04260CE0002602E00098401C009044
:101F2000009800782F28F8D0009800785C28F4D02A
:101F300000990498016008E0681E3AF81040202CCF
:101F400002D02E2C00D002E06D1E002DF4D100BF77
:101F500000202AF815000DB90620B0E7002700E0A0
:101F60007F1C3AF817002028FAD01FB93AF817005A
:101F70002E2801D146F0030600E06D1E25B1681E33
:101F80003AF810002E28F8D10B22202109F1200068
:101F900001F07BFA4FF00008CDF80880082001908E
:101FA00000BF38467F1C3AF8104004B96AE0202C84
:101FB00003D02E2C04D1AF4202D046F00306F0E746
:101FC000DDE90110884201D2AF4216D101980B28F9
:101FD00002D146F0030655E0AF4201D046F00306B9
:101FE000AF4200D94EE02F46082002900B2001900E
:101FF0004FEA88604FEA1068D3E7802C0EDB46F08A
:10200000020640F2B511204600F066FF044604F0D7
:10201000800018B104F07F0033490C5CFF2C11DD07
:102020000198401E0299884204D846F003060198A0
:102030000290B6E722120298411C029109F1200198
:102040000A5418E024B1214628A0FFF72FFE18B14A
:102050005F2446F003060EE0412C03DB5A2C01DC22
:1020600048F00208612C06DB7A2C04DC48F00108F9
:10207000A4F1200084B20298411C029109F12001D0
:102080000C548EE700BF99F82000E52802D1052006
:1020900089F820000198082803D14FEA88604FEAA8
:1020A000106808F00C000C2803D008F00300032887
:1020B00001D146F0020606F0020048B908F001001E
:1020C00008B146F0100608F0040008B146F0080612
:1020D0002B2000F809600020F1E60000222A3A3C9B
:1020E0003E3F7C7F000000005D3D00082B2C3B3D07
:1020F0005B5D0000014609B1002070470020FCE74D
:102100002DE9F04104460E46D4F800800021204617
:1021100000F0A6FA0546EDB9002700BF4046A169C8
:1021200001F03CFB054605B113E0E0690078E528C5
:1021300002D0E069007820B9781C0746B04201D18E
:1021400007E000270121204600F0EBF80546002DAE
:10215000E4D000BF042D00D107252846BDE8F0815A
:102160002DE9F04704468946204601F01DFD10B1D7
:102170000120BDE8F08749462046FFF7A1FD07464C
:1021800027634FF40072002104F1340001F07DF95F
:1021900060894FF40041B1EB402F01D8084601E0BF
:1021A0006089400206464FF0000800E07608B6F568
:1021B000007F05D9304600F083FEB0F10008F5D06D
:1021C000B6F5007F17D932460021404601F05DF98F
:1021D000760A002500E035446089A84207D97A19BB
:1021E00060783346414600F0E1FA0028F3D04046DB
:1021F00000F06CFE10E004F134080126002500E038
:1022000035446089A84207D97A1960783346414637
:1022100000F0CCFA0028F3D06089A84201D0012058
:10222000A7E70020A5E72DE9F0470446D4F800A071
:102230000021204600F014FA064616B13046BDE8EB
:10224000F0874FF0FF08C1464FF0FF30E06200BF5B
:102250005046A16901F0A2FA064606B15EE0E069C7
:1022600005780DB9042659E0E069C07A00F03F070F
:10227000A771E52D04D007F0080038B10F2F05D065
:102280004FF0FF084FF0FF30E06240E00F2F22D107
:102290002B20005D00F0400098BB05F0400038B1F5
:1022A000E06990F80D9005F0BF05A8462069E0624E
:1022B00045450CD1E069407B484508D1E169DAF831
:1022C0000C00FFF70BFD10B1A8F1010000E0FF20AA
:1022D00000F0FF081BE0B8F1000F05D1E06901F044
:1022E0000AFC484500D119E02B20005D00F00100F8
:1022F00040B90B2204F12001E06901F0A7F808B908
:102300000CE004E04FF0FF084FF0FF30E0620021E6
:10231000204600F006F80646002E99D000BF304651
:102320008DE72DE9F041044688462768206900F1D1
:102330002006B6F5001F01D30020A061A06910B9E6
:102340000420BDE8F081C6F30800002845D1A0694B
:10235000401CA061606938B93889B0EB561F3CD881
:102360000020A0610420ECE77889401E00EA562096
:1023700098BB2046616900F033FF0546012D01D866
:102380000220DEE7681C08B90120DAE7B869A84234
:102390001DD8B8F1000F03D10020A0610420D0E7C0
:1023A00020466169FFF7E6FC05460DB90720C8E73E
:1023B000012D01D10220C4E7681C08B90120C0E743
:1023C00029463846FFF7CCFE08B10120B9E7656120
:1023D00029463846FFF774FCA0612661C6F3080160
:1023E00007F134000844E0610020AAE72DE9F05F1E
:1023F000044689460426D4F800A04FF0FF08C346DF
:1024000053E05046A16901F0C9F9064606B14FE014
:10241000E06905780DB904264AE0E069C07A00F069
:102420003F07A771E52D0AD02E2D08D027F02000F8
:10243000082801D1012000E00020484502D04FF0DB
:10244000FF082BE00F2F1DD105F0400038B1E069E7
:1024500090F80DB005F0BF05A8462069E06245453B
:102460000CD1E069407B584508D1E169DAF80C00ED
:1024700001F0AEF910B1A8F1010000E0FF2000F07A
:10248000FF080BE0B8F1000F04D1E06901F033FB65
:10249000584502D04FF0FF30E06209E000212046AD
:1024A000FFF73FFF064606B102E0A0690028A8D169
:1024B00000BF0EB10020A0613046BDE8F09F2DE9BD
:1024C000FE4F044626682B20005D00F0A00010B1EE
:1024D0000620BDE8FE8F4FF0000901E009F1010977
:1024E000F06830F819000028F8D10C2204F120011E
:1024F000684600F0BDFF9DF80B0000F0010028B316
:1025000040212B2001554FF001080EE0434669465B
:1025100004F12000F26800F0FDFD2046FFF783FE85
:10252000054605B104E008F10108B8F1640FEDD3E8
:1025300000BFB8F1640F01D10720CAE7042D01D014
:102540002846C6E79DF80B102B2001559DF80B007F
:1025500000F0020030B109F10C000D21B0FBF1F0E8
:10256000401C00E00120074639462046FFF7C8FD21
:1025700005464DBB781E071E26D02069A0EB4711EB
:10258000204600F06DF80546F5B904F1200001F091
:10259000B2FA824600BF3046A16901F0FFF8054655
:1025A00005B110E0FAB2E1695346F06801F0F2F9C2
:1025B0000120F07000212046FFF7B3FE054615B953
:1025C000781E071EE7D100BFC5B93046A16901F0EA
:1025D000E5F8054695B920220021E06900F055FF95
:1025E0000B2204F12001E06900F042FF2B20005D86
:1025F00000F01800E16908730120F070284668E7D0
:102600002DE9F041044626682769E06A401C08B9B4
:10261000002003E02046E16A00F022F80546E5B913
:1026200000BF3046A16901F0B9F8054605B110E0D8
:1026300000BFE520E16908700120F0702069B84210
:1026400000D306E000212046FFF76BFE0546002D73
:10265000E7D000BF042D00D102252846BDE8F08157
:102660002DE9F04104460D462668B5F5001F02D25B
:1026700005F01F0010B10220BDE8F0812561A768B8
:102680001FB93078032800DBB76A47B93089B0EB4F
:10269000551F01D80220EFE7B06AA0611CE07089E5
:1026A0004FEA402811E03946204600F099FD0746E0
:1026B000781C08B90120DFE7022F02D3B069B842C5
:1026C00001D80220D8E7A5EB08054545EBD23946ED
:1026D0003046FFF7F5FAA0616761A06908B90220EA
:1026E000CAE7A06900EB5520A061C5F3080106F117
:1026F00034000844E0610020BEE7000070B50446E5
:10270000002504E001200D494855681CC5B2022D82
:10271000F8DB14B1012C0BD109E0FEF7BDFB28B9A1
:102720000648005D20F001000449085502E001E080
:10273000042070BD00BF0148005DFAE715000020CD
:1027400003460BB9002070470420FCE72DE9F04157
:1027500004460E4617461D4615B90420BDE8F08113
:102760000C48005D00F0010008B10320F6E714B149
:10277000012C0CD109E0EAB239463046FEF754FC90
:1027800008B90020EAE70120E8E70120E6E7042095
:10279000E4E70000150000200146022901DB0120CA
:1027A00070470148405CFBE7150000202DE9F0412F
:1027B00004460E4617461D4615B90420BDE8F081B3
:1027C0000F48005D00F0010008B10320F6E70C4857
:1027D000005D00F0040008B10220EFE714B1012C05
:1027E0000CD109E0EAB239463046FEF70BFD08B9D4
:1027F0000020E3E70120E1E70120DFE70420DDE737
:102800001500002038B50546284600F0A7FA044612
:102810003CB96946284601F053FA04460CB9002039
:102820002860204638BD0000F7B582B016460398F0
:10283000019001A800F044FD0546002D02DA0B20AE
:1028400005B0F0BD0C4850F825400CB100202070B8
:10285000029810B10020029908700749029841F8C7
:1028600025000EB90020EBE7002202A903A800F022
:1028700041FE07463846E3E7180000202DE9F74FF0
:102880008EB0044616461CB9092011B0BDE8F08F81
:1028900006F03F06324601A90FA800F02BFE0546C0
:1028A000002D74D1019802904FF4007000F008FBE5
:1028B0008346BBF1000F01D11120E6E70198C0F873
:1028C0000CB002A80F9900F0BBFB05462DB99DF88E
:1028D000330000F0800000B1062506F01C0000283F
:1028E0004DD045B1042D03D102A8FFF7E8FD054600
:1028F00046F008060AE09DF80E0000F0110008B14D
:10290000072503E006F0040000B10825002D48D19A
:1029100006F00800002844D00999019800F02AFD2B
:102920008146099901F10E00554901F0D2F82020A5
:102930000999C87200220999019801F0B8F809991B
:1029400001F11C00002101F0C4F801200199C870B8
:10295000B9F1000F25D00198D0F830A000224946E7
:1029600002A801F057F80546DDB95146019800F07C
:1029700015FF0546A9F101000199086111E085B92B
:102980009DF80E0000F0100010B1042509E071E080
:1029900006F0020028B19DF80E0000F0010000B121
:1029A00007254DB906F0080008B146F04006019829
:1029B000006B206209986062002D58D10999019836
:1029C00000F0D8FCA060099901F11C0000F0E5FCC2
:1029D000E060019820600198C088A08026740020E3
:1029E0006074E06160614FF40072002104F128001E
:1029F00000F04BFD06F0200058B3E06848B3E068F3
:102A000060610198408940020090A768D4F80C806A
:102A10000DE03946204600F0E3FB0746012F00D8C1
:102A20000225781C00B901250098A8EB000815B90B
:102A300000988045EDD8A7615DB9C8F3080040B1A2
:102A400039460198FFF73CF98246BAF1000F01D1EF
:102A500002250CE00AEB5820E061E2690199487810
:102A6000012304F12801FFF771FE00B1012558464A
:102A700000F02CFA0DB100202060284605E7000088
:102A80000000214E2DE9FF4F85B0044615469A46B9
:102A9000DDF818B00020CAF8000003A9204601F0B4
:102AA0000FF90490049810B9607C049018B1049850
:102AB00009B0BDE8F08F207C00F0010008B90720C4
:102AC000F6E76169E068401A01900198854200D9F3
:102AD000019DA0E0A08AC0F3080000287ED10398E1
:102AE0004089401E616900EA5129B9F1000F17D1F0
:102AF000606910B9A068029004E02046A16900F066
:102B00006FFB02900298022802D202206074CFE785
:102B10000298401C10B901206074C9E70298A061B6
:102B2000A1690398FFF7CCF8064616B90220607435
:102B3000BEE74E444FEA5528B8F1000F29D009EB03
:102B4000080003994989884203D903984089A0EB7A
:102B5000090803994878434632465946FFF7F6FD7F
:102B600010B101206074A3E7207C00F0800068B100
:102B7000E069801B404509D2E169891B0BEB4120CC
:102B80004FF4007204F1280100F072FC4FEA48276C
:102B900037E0E069B04220D0207C00F0800078B1BE
:102BA000E26903994878012304F12801FFF7FEFD4B
:102BB00010B1012060747BE7207C00F07F0020745E
:102BC000039948780123324604F12801FFF7BEFD3E
:102BD00018B1012060746BE700E0E661A08AC0F3E1
:102BE0000800C0F50077AF4200D92F46A08AC0F395
:102BF000080204F1280011183A46584600F038FC43
:102C000000BFED1BDAF800003844CAF80000BB44EE
:102C1000606938446061002D7FF45CAF002047E7B5
:102C20002DE9F341A2B023A800F04AFB022209A932
:102C300022A800F05FFC0446002C7DD10998169074
:102C40004FF4007000F03CF907461FB9112024B082
:102C5000BDE8F0810998C76016A8229900F0F0F944
:102C600004462CB99DF8830000F0A00000B10624B2
:102C7000002C6ED1202201A81D9900F0F9FB302212
:102C800016A90AA800F0F4FB0AA8239900F0D8F9C5
:102C900004465CB918990C98884205D11A990E9887
:102CA000884201D1042000E008200446042C46D1CB
:102CB0000AA8FFF704FC0446002C40D1119D132202
:102CC0000DF1110105F10D0000F0D2FB9DF80F0090
:102CD000E872E87A00F0100018B9E87A40F02000B5
:102CE000E87201200999C870E87A00F0100030B34A
:102CF0000C991898884222D02946099800F03AFB8E
:102D0000804641460998FEF7DBFF06460EB90224CD
:102D100015E03146099800F041FD0446099800F19C
:102D2000540564B968782E2809D129460C9A099867
:102D300000F0BDFE012000E00EE00999C87044B922
:102D400016A8FFF75DFC04461CB9099800F0E4FEE4
:102D50000446384600F0BAF8204678E7F8B504464D
:102D60006946204600F0ACFF0646002E42D1207C8A
:102D700000F0400000283DD0207C00F0800070B1C1
:102D8000E26900994878012304F12801FFF70EFD5C
:102D900008B10120F8BD207C00F07F002074164FA0
:102DA000216A009800F0FAFC06461EBB656AE87AC4
:102DB00040F02000E8722946A268206800F077FE03
:102DC00005F11C00E16800F084FE394605F11600AB
:102DD00000F07FFE002105F1120000F086FE0120C8
:102DE0000099C870009800F097FE0646207C00F01D
:102DF000BF0020743046CDE70000214E71B599B078
:102E000000260222694619A800F074FB0446002C33
:102E100054D100980D904FF4007000F051F8054621
:102E200015B911201AB070BD0098C5600DA8199988
:102E300000F006F9044600BF002C3CD19DF85F006D
:102E400000F0800008B1062405E09DF83A0000F08B
:102E5000010000B10724E4B91499009800F08AFA3F
:102E600006469DF83A0000F0100090B100980190DD
:102E70000396002101A8FFF7F3FB04464CB900219B
:102E800001A8FFF7B3FA044604B90724042C00D1C3
:102E9000002484B90DA8FFF7B3FB044634B92EB162
:102EA000002231460DA800F0B5FD04461CB900987B
:102EB00000F032FE0446284600F008F82046B1E74C
:102EC00010B504462046FDF7F1F910BD10B50446D3
:102ED0002046FDF71AFA10BD10B5024600200D4B32
:102EE000802A01D290B213E0B2F5803F10D240F2B6
:102EF000B514A1420CD1002001E0441CA0B28028EE
:102F000003DA33F810409442F7D100F18004E0B2C4
:102F100010BD0000DE3D000870B5B0F5803F4DD219
:102F200081B2B1F5805F01DA254E00E0254E3246D0
:102F300000BF32F8023B0BB1994200DA3CE032F8B4
:102F4000024B2512E4B21E198E4230DD092D2CD21F
:102F5000DFE805F005090F13171B1F232700CE1A02
:102F600032F8161021E0CE1A06F001068E1BB1B21F
:102F70001BE0A1F11006B1B217E0A1F12006B1B239
:102F800013E0A1F13006B1B20FE0A1F11A06B1B21F
:102F90000BE001F10806B1B207E0A1F15006B1B2B1
:102FA00003E0A1F5E356B1B200BF00BF04E0002D7D
:102FB000BFD102EB4402BCE700BF084670BD000071
:102FC000DE3E0008D04000082DE9FF4107460D46CF
:102FD00000213846FEF72AFE0646022E06D0032EB2
:102FE00000D21DB9304604B0BDE8F08100BF002416
:102FF0000AE007F5F97101EB041101F1080000F096
:10300000CCF94DF82400641C042CF2D30DB1681ED9
:1030100000E00020044600BF5DF8240028B15DF800
:1030200024103846FEF702FE00E0032006462DB9C4
:10303000022E03D3601C04460428EDD33046D2E7A9
:103040002DE9F3410446276802E00198401C0190F5
:10305000019800782F28F8D0019800785C28F4D0E7
:103060000020A06001980078202808D280212B2021
:10307000015500212046FFF7F3FA05462CE000BF7A
:1030800001A92046FEF706FF054605B123E02046CC
:10309000FFF7C9F805462B20065D3DB1042D04D18C
:1030A00000BF06F0040000B9052514E006F0040096
:1030B00000B110E0A07900F0100008B905250AE081
:1030C000208AC0F3080207F134001118384600F0D6
:1030D00051F9A060D4E700BF2846BDE8FC8110B5D7
:1030E000ADF50A7D0446002221466846FFF7C6FB7F
:1030F00030B96846FFF786FB01200DF50A7D10BD4B
:103100000020FAE710B500F0E5F910BD10B500F0A9
:10311000C9FD10BD2DE9FF4F83B0804691461E4684
:103120000B224046049900F0A3F9052E18D9374622
:1031300011E039F802BB00250BE0584667F35F0049
:1031400007464FEA6B0B07F4803008B1234847402D
:103150006D1C102DF1D3B9F800000028E9D13E46CE
:10316000072500BF06F00F0000F1300ABAF1390F51
:1031700003DD0AF1070000F0FF0A28466D1E01A9D1
:1031800001F800A03609002EECD17E20485500241D
:103190000AE018F80400FEF7ADFF20B1681EA04257
:1031A00000D107E0641C641CAC4203D218F8040090
:1031B0002028EED100BF00BF082D04D228466D1C88
:1031C00001A9085C00E020202146641C08F80100E9
:1031D000082CF1D307B0BDE8F08F000021100100EA
:1031E0002DE9F04781460C46D9F80050022C02D355
:1031F000A869A04202D84FF001085EE04FF0FF3806
:103200002878012804D002282CD0032851D13CE092
:10321000264606EB5606686A00EB5621284600F063
:10322000BDFA00B148E03046761CC0F3080105F154
:103230003400475C686A00EB5621284600F0AEFA7D
:1032400000B139E0C6F3080105F13400405C47EAFB
:10325000002704F0010008B1380901E0C7F30B00B2
:10326000804629E0686A00EB1421284600F096FAAF
:1032700000B121E040F2FF1101EA440205F13401FE
:10328000501800F096F8804616E0686A00EBD411FA
:10329000284600F083FA00B10EE040F2FF1101EA87
:1032A000840205F13401501800F077F820F07048DE
:1032B00002E04FF0010800BF00BF4046BDE8F087C4
:1032C000F0B506464FF0FF30D6F800C061466346C1
:1032D00001B9F0BD00BF13F8012B202A01D33A2A0F
:1032E000F9D13A2A40D1022591F800C0BCF1300F43
:1032F0000DDB91F800C0BCF1390F08DC01F1020CC4
:103300009C4504D191F800C0ACF1300527E00025C0
:1033100000BFDFF85CC05CF82570316800BF17F8AB
:10332000014B11F8012B612C05DB7A2C03DCA4F195
:10333000200C0CF0FF04612A05DB7A2A03DCA2F1E1
:10334000200C0CF0FF020CB19442E8D00CB9994269
:1033500005D005F1010C6546BCF1020FD9DB022D49
:1033600001DA28463360B4E7002000BFB1E700006F
:10337000483D000870B505460C4604F11A0000F0FF
:1033800018F806462878032805D104F1140000F047
:1033900010F846EA0046304670BD0146C8788A7883
:1033A00042EA00204A7842EA00200A7842EA0020F5
:1033B0007047014648780A7842EA002070470000CA
:1033C00008B54FF48040FDF7E7FA4FF080501C49F4
:1033D000096801431A4A11601146096801400091C9
:1033E00000BF00BF05200246164B19684FF6FF03C9
:1033F0001940154B0B4343EA0221124B196000BFE1
:10340000FEF7BAF9FDF7E4FC00F058F8FEF7E8FB28
:10341000FEF71CFB00B108E0FEF764FA00B104E01F
:10342000FEF7E0FA00B100E000BFFEF7F9FA00F0A5
:103430003BF8FEF7C3FBFEF739FB00BFFEE70000D9
:10344000403802400CED00E00000FA05F0B50346FC
:103450001D460C46002000BF15F8017B14F801CB77
:10346000A7EB0C00561E321E01D00028F4D0F0BD90
:1034700030B503460C463AB100BF14F8015B03F8BF
:10348000015B551E2A1EF8D130BD10B5034600BFA2
:1034900003F8011B541E221EFAD110BD014800681A
:1034A00070470000040000204FF0E020006920F089
:1034B00003004FF0E02108610020704700BF4FF08B
:1034C000E020006940F002004FF0E021086100BFF9
:1034D0007047000010B5012204A10548FFF7A4F9C8
:1034E00008B9012010BD0020FCE7000053443A0059
:1034F000280000202DE9F74F84B0002105980160D5
:103500000498FFF7DDFE03900398002803DA0B20F0
:1035100007B0BDE8F08F9C49039851F820400CB9E2
:103520000C20F5E705980460069800F0FE00069070
:10353000207878B16078FFF72FF9074607F001008F
:1035400040B9069820B107F0040008B10A20DFE76F
:103550000020DDE700202070039860706078FFF79E
:10356000CDF8074607F0010008B10320D0E7069820
:1035700020B107F0040008B10A20C9E70021204665
:10358000FFF722FD0546042D01D10120C0E7022DE1
:1035900001D30D20BCE7D4F8309004F13F00FFF7D1
:1035A00008FFB0F5007F01D00D20B1E704F14A001B
:1035B000FFF7FFFE064626B904F15800FFF7EDFEBF
:1035C0000646E6614420005DA070A078012804D082
:1035D000A078022801D00D209AE7A0784643412028
:1035E000005D6081608918B16089411E084008B1A2
:1035F0000D208DE704F14500FFF7DBFE2081207AE6
:1036000000F00F0008B10D2082E704F14700FFF73A
:10361000D0FE8246BAF1000F04D104F15400FFF746
:10362000BCFE824604F14200FFF7C3FE8346BBF1B5
:10363000000F01D10D206BE70BEB0600218900EB99
:10364000111002900298824501D20D2060E7029885
:10365000AAEB00006189B0FBF1F8B8F1000F01D1CD
:103660000D2055E700254948804500D803254FF631
:10367000F570804500D8022540F6F570804500D8E9
:1036800001250DB90D2043E708F10200A061C4F83F
:10369000209009EB0B00606202984844E062032D21
:1036A00013D104F15E00FFF784FE08B10D202FE76F
:1036B000208908B10D202BE704F16000FFF76DFEB3
:1036C000A062A0698000019014E0208908B90D2053
:1036D0001EE7606A3044A062022D02D1A06940005A
:1036E00007E0207E00F00100A16901EB410100EB41
:1036F00051000190E169019800F2FF10B1EB502FE9
:1037000001D20D2004E74FF0FF306061206180207E
:103710002071032D2DD104F16400FFF74AFE01282A
:1037200027D109F10101204600F038F808BB00203C
:10373000207104F23220FFF73CFE4AF65521884200
:1037400017D104F13400FFF728FE1149884210D147
:1037500004F50670FFF721FE0E49884209D104F5F1
:103760000770FFF71AFE606104F50870FFF715FE99
:103770002061257008480088401C80B206490880F6
:10378000E0800020C4E6000018000020F5FFFF0FD5
:1037900052526141727241612000002070B50446AE
:1037A0000D460026206BA84210D0204600F0FCF900
:1037B00006465EB9607801232A4604F13401FEF71B
:1037C000C5FF10B14FF0FF3501262563304670BDAF
:1037D0002DE9F04780460C4604F11A00FFF7E9FD99
:1037E00010B10020BDE8F087207820F04000401E96
:1037F00000EB800101EBC0054FF00109002619E044
:103800001549895D0819FFF7D4FD0746B9F1000F86
:1038100009D0FF2D01D90020E4E7B94628466D1CE8
:1038200028F8107005E04FF6FF70874201D00020A5
:10383000D8E7761C0D2EE3D3207800F0400048B185
:10384000B9F1000F06D0FF2D01D90020CAE70020F2
:1038500028F815000120C5E7503D00082DE9F04784
:1038600004460D4616464FF00209022D74D3A06996
:10387000A84271D92078012804D0022849D0032811
:103880000DD15EE02F4607EB5707606A00EB57212A
:103890002046FFF783FF8146B9F1000F00D075E0A5
:1038A00038467F1CC0F3080104F1340001EB000826
:1038B00005F0010028B1F1B298F8000061F31F1083
:1038C00000E0304688F800000120E070606A00EBFC
:1038D00057212046FFF762FF8146B9F1000F00D063
:1038E00054E0C7F3080104F1340001EB000805F0CF
:1038F000010010B1C6F3071006E098F8000000F0D0
:10390000F000C6F30321084388F800000120E070AE
:103910003CE0606A00EB15212046FFF73FFF81463F
:10392000B9F1000F00D031E0B1B240F2FF1202EA6B
:10393000450304F13402981800F0D7F80120E07034
:1039400024E0606A00EBD5112046FFF727FF81468F
:10395000B9F1000F01D019E019E040F2FF1101EABE
:10396000850204F134015018FFF717FD66F31B00C0
:10397000064640F2FF1101EA850204F134015018B5
:10398000314600F0A6F80120E07000BF00BF4846B5
:10399000BDE8F0872DE9F04707460C4615469846E6
:1039A00084F80D800F20E07200202073002104F1C4
:1039B0001A0000F09AF8681E00EB800101EBC009C4
:1039C00000200646824600BF4FF6FF70864204D0B4
:1039D000484609F1010937F810600D4911F80A103D
:1039E0000819314600F081F80EB94FF6FF760AF15A
:1039F000010082460D28E7D34FF6FF70864202D0C1
:103A000037F8190008B945F040052570BDE8F08782
:103A1000503D00082DE9F04781460E4617464FF00D
:103A20000008D9F80040022E02D3A069B04202D8A3
:103A30000220BDE8F08767B100BF4FF0FF32394682
:103A40002046FFF70BFF8046B8F1000F01D040463B
:103A5000EFE700BF31464846FFF7C2FB054605B910
:103A600022E0012D01D10220E3E7681C08B9012002
:103A7000DFE7002231462046FFF7F0FE8046B8F12E
:103A8000000F01D04046D4E7D4E90510801E8142E2
:103A900006D26069401C6061207940F0010020710D
:103AA0002E46A069B042D5D800BF0020C1E770B54E
:103AB00006460C461546A9B204F11A0000F015F8A6
:103AC0003078032804D1290C04F1140000F00DF81B
:103AD00070BD00F8011B090A00F8011B090A00F873
:103AE000011B090A00F8011B704700F8011B0912AD
:103AF00000F8011B704730B5014600200B2200BFC3
:103B0000431003EBC01411F8015B6319D8B2531EC4
:103B10001A1EF5D130BD000070B50446204600F0F5
:103B200043F80546002D38D1207803282ED120797E
:103B300001282BD14202002104F13400FFF7A5FC3B
:103B40004AF6552104F23220FFF7CFFF144904F161
:103B50003400FFF7BEFF134904F50670FFF7B9FF05
:103B600004F507706169FFF7B4FF04F50870216977
:103B7000FFF7AFFF206A401C20636078012304F147
:103B80003401226BFEF712FE0020207160780022C3
:103B90001146FEF7D5FD00B10125284670BD000095
:103BA000525261417272416170B504460025E0785D
:103BB000E8B16078012304F13401226BFEF7F6FDD1
:103BC000A0B90020E070616A206B401AE169884268
:103BD0000DD2A07802280AD1E369216BCA18607857
:103BE000012304F13401FEF7E1FD00E00125284640
:103BF00070BD000070B50446226812F8011B01F088
:103C00008000002847D001F0E000C02803D101F077
:103C10001F01012312E001F0F000E02803D101F0C0
:103C20000F0102230AE001F0F800F02803D101F0AF
:103C30000701032302E04FF0FF3070BD00BF12F810
:103C4000015B05F0C000802802D04FF0FF30F4E7A0
:103C5000284661F39F100146581E031EEFD18029AC
:103C600008D3B1F5584F02D3B1F5604F02D3B1F587
:103C7000881F02D34FF0FF30DFE7B1F5803F0AD352
:103C8000A1F58030054E06EA8010054E3043C1F3A1
:103C9000090640EA060122600846CEE70000FF035D
:103CA00000DC00D810B5012204A10020FEF7BCFD05
:103CB00008B9012010BD0020FCE7000053443A0081
:103CC00070B504460D4609268CB1206878B120688D
:103CD000007860B1A0882168C988884207D121682E
:103CE0004878FEF759FD00F0010000B900260EB932
:103CF000206800E000202860304670BD4FF0407022
:103D0000E1EE100A7047000000000240000402408B
:103D100000080240000C0240001002400014024063
:103D200000180240001C02400030014000380040F2
:103D3000003C00402000002008004000004010002F
:103D400080000080200000008C41000890410008A5
:103D500001030507090E10121416181C1E809A453F
:103D6000418E418F804545454949498E8F909292B9
:103D70004F994F555559999A9B9C9D9E9F41494FEC
:103D800055A5A5A6A7A8A9AAABACADAEAFB0B1B2D8
:103D9000B3B4B5B6B7B8B9BABBBCBDBEBFC0C1C27B
:103DA000C3C4C5C6C7C8C9CACBCCCDCECFD0D1D26B
:103DB000D3D4D5D6D7D8D9DADBDCDDDEDFE0E1E25B
:103DC000E3E4E5E6E7E8E9EAEBECEDEEEFF0F1F24B
:103DD000F3F4F5F6F7F8F9FAFBFCFDFEFF00C70077
:103DE000FC00E900E200E400E000E500E700EA0092
:103DF000EB00E800EF00EE00EC00C400C500C900D5
:103E0000E600C600F400F600F200FB00F900FF0037
:103E1000D600DC00A200A300A500A7209201E100CB
:103E2000ED00F300FA00F100D100AA00BA00BF00D3
:103E30001023AC00BD00BC00A100AB00BB0091256D
:103E40009225932502252425612562255625552591
:103E50006325512557255D255C255B2510251425F7
:103E600034252C251C2500253C255E255F255A255B
:103E7000542569256625602550256C25672568250C
:103E80006425652559255825522553256B256A2516
:103E900018250C25882584258C2590258025B1039F
:103EA000DF009303C003A303C303B500C403A60349
:103EB0009803A903B4031E22C603B5032922612275
:103EC000B1006522642220232123F7004822B0009C
:103ED0001922B7001A227F20B200A025A00061009D
:103EE0001A03E0001703F8000703FF000100780140
:103EF0000001300132010601390110014A012E0191
:103F00007901060180014D00430281018201820195
:103F10008401840186018701870189018A018B015F
:103F20008B018D018E018F0190019101910193010F
:103F30009401F60196019701980198013D029B01B9
:103F40009C019D0120029F01A001A001A201A201EC
:103F5000A401A401A601A701A701A901AA01AB011F
:103F6000AC01AC01AE01AF01AF01B101B201B301CF
:103F7000B301B501B501B701B801B801BA01BB0180
:103F8000BC01BC01BE01F701C001C101C201C301F6
:103F9000C401C501C401C701C801C701CA01CB01E1
:103FA000CA01CD011001DD0101008E01DE01120107
:103FB000F3010300F101F401F401F80128012202E8
:103FC00012013A020900652C3B023B023D02662CBD
:103FD0003F0240024102410246020A0153024000F0
:103FE00081018601550289018A0158028F015A0216
:103FF00090015C025D025E025F0293016102620257
:1040000094016402650266026702970196016A02E2
:10401000622C6C026D026E029C01700271029D01A5
:10402000730274029F0176027702780279027A02A3
:104030007B027C02642C7E027F02A6018102820246
:10404000A9018402850286028702AE014402B10101
:10405000B20145028D028E028F0290029102B701D9
:104060007B030300FD03FE03FF03AC030400860390
:10407000880389038A03B1031103C2030200A30367
:10408000A303C4030803CC0303008C038E038F0334
:10409000D8031801F2030A00F903F303F403F5034C
:1040A000F603F703F703F903FA03FA0330042003D6
:1040B00050041007600422018A043601C1040E0175
:1040C000CF040100C004D0044401610526040000AF
:1040D0007D1D0100632C001E9601A01E5A01001FC9
:1040E0000806101F0606201F0806301F0806401F7E
:1040F0000606511F0700591F521F5B1F541F5D1FEB
:10410000561F5F1F601F0806701F0E00BA1FBB1FDF
:10411000C81FC91FCA1FCB1FDA1FDB1FF81FF91FDB
:10412000EA1FEB1FFA1FFB1F801F0806901F0806DF
:10413000A01F0806B01F0400B81FB91FB21FBC1F84
:10414000CC1F0100C31FD01F0206E01F0206E51F9F
:104150000100EC1FF31F0100FC1F4E210100322162
:1041600070211002842101008321D0241A05302CF3
:104170002F04602C0201672C0601752C0201802C93
:104180006401002D260841FF1A030000534400007B
:1041900055000000B4410008000000202800000085
:1041A00000020008DC41000828000020F02A00007E
:1041B0001C0200080024F40000000000000002407F
:1041C0000004024000040240000101000000000061
:0C41D0000000000000000000008000085B
:04000005080001C529
:00000001FF
